{
  "abi": [
    {
      "inputs": [
        {
          "internalType": "address",
          "name": "router",
          "type": "address"
        },
        {
          "internalType": "address",
          "name": "link",
          "type": "address"
        }
      ],
      "stateMutability": "nonpayable",
      "type": "constructor"
    },
    {
      "inputs": [
        {
          "internalType": "address",
          "name": "owner",
          "type": "address"
        },
        {
          "internalType": "address",
          "name": "target",
          "type": "address"
        },
        {
          "internalType": "uint256",
          "name": "value",
          "type": "uint256"
        }
      ],
      "name": "FailedToWithdrawEth",
      "type": "error"
    },
    {
      "anonymous": false,
      "inputs": [
        {
          "indexed": false,
          "internalType": "bytes32",
          "name": "messageId",
          "type": "bytes32"
        }
      ],
      "name": "MessageSent",
      "type": "event"
    },
    {
      "anonymous": false,
      "inputs": [
        {
          "indexed": true,
          "internalType": "address",
          "name": "from",
          "type": "address"
        },
        {
          "indexed": true,
          "internalType": "address",
          "name": "to",
          "type": "address"
        }
      ],
      "name": "OwnershipTransferRequested",
      "type": "event"
    },
    {
      "anonymous": false,
      "inputs": [
        {
          "indexed": true,
          "internalType": "address",
          "name": "from",
          "type": "address"
        },
        {
          "indexed": true,
          "internalType": "address",
          "name": "to",
          "type": "address"
        }
      ],
      "name": "OwnershipTransferred",
      "type": "event"
    },
    {
      "inputs": [],
      "name": "acceptOwnership",
      "outputs": [],
      "stateMutability": "nonpayable",
      "type": "function"
    },
    {
      "inputs": [
        {
          "internalType": "uint64",
          "name": "destinationChainSelector",
          "type": "uint64"
        },
        {
          "internalType": "address",
          "name": "receiver",
          "type": "address"
        },
        {
          "internalType": "enum SourceMinter.PayFeesIn",
          "name": "payFeesIn",
          "type": "uint8"
        }
      ],
      "name": "mint",
      "outputs": [],
      "stateMutability": "nonpayable",
      "type": "function"
    },
    {
      "inputs": [],
      "name": "owner",
      "outputs": [
        {
          "internalType": "address",
          "name": "",
          "type": "address"
        }
      ],
      "stateMutability": "view",
      "type": "function"
    },
    {
      "inputs": [
        {
          "internalType": "address",
          "name": "to",
          "type": "address"
        }
      ],
      "name": "transferOwnership",
      "outputs": [],
      "stateMutability": "nonpayable",
      "type": "function"
    },
    {
      "inputs": [
        {
          "internalType": "address",
          "name": "beneficiary",
          "type": "address"
        }
      ],
      "name": "withdraw",
      "outputs": [],
      "stateMutability": "nonpayable",
      "type": "function"
    },
    {
      "inputs": [
        {
          "internalType": "address",
          "name": "beneficiary",
          "type": "address"
        },
        {
          "internalType": "address",
          "name": "token",
          "type": "address"
        }
      ],
      "name": "withdrawToken",
      "outputs": [],
      "stateMutability": "nonpayable",
      "type": "function"
    },
    {
      "stateMutability": "payable",
      "type": "receive"
    }
  ],
  "bytecode": {
    "object": "0x60c060405234801561001057600080fd5b50604051610cdd380380610cdd83398101604081905261002f91610194565b33806000816100855760405162461bcd60e51b815260206004820152601860248201527f43616e6e6f7420736574206f776e657220746f207a65726f000000000000000060448201526064015b60405180910390fd5b600080546001600160a01b0319166001600160a01b03848116919091179091558116156100b5576100b5816100cf565b5050506001600160a01b039182166080521660a0526101c7565b336001600160a01b038216036101275760405162461bcd60e51b815260206004820152601760248201527f43616e6e6f74207472616e7366657220746f2073656c66000000000000000000604482015260640161007c565b600180546001600160a01b0319166001600160a01b0383811691821790925560008054604051929316917fed8889f560326eb138920d842192f0eb3dd22b4f139c87a2c57538e05bae12789190a350565b80516001600160a01b038116811461018f57600080fd5b919050565b600080604083850312156101a757600080fd5b6101b083610178565b91506101be60208401610178565b90509250929050565b60805160a051610ad561020860003960008181610443015261057a01526000818161048a0152818161054b015281816105ff01526106970152610ad56000f3fe6080604052600436106100595760003560e01c80633aeac4e11461006557806351cff8d91461008757806379ba5097146100a75780638da5cb5b146100bc578063ec99afa2146100e8578063f2fde38b1461010857600080fd5b3661006057005b600080fd5b34801561007157600080fd5b5061008561008036600461087f565b610128565b005b34801561009357600080fd5b506100856100a23660046108b2565b610218565b3480156100b357600080fd5b506100856102b6565b3480156100c857600080fd5b50600054604080516001600160a01b039092168252519081900360200190f35b3480156100f457600080fd5b506100856101033660046108d4565b610360565b34801561011457600080fd5b506100856101233660046108b2565b610751565b610130610765565b6040516370a0823160e01b81523060048201526000906001600160a01b038316906370a0823190602401602060405180830381865afa158015610177573d6000803e3d6000fd5b505050506040513d601f19601f8201168201806040525081019061019b919061092e565b60405163a9059cbb60e01b81526001600160a01b038581166004830152602482018390529192509083169063a9059cbb906044016020604051808303816000875af11580156101ee573d6000803e3d6000fd5b505050506040513d601f19601f820116820180604052508101906102129190610947565b50505050565b610220610765565b60405147906000906001600160a01b0384169083908381818185875af1925050503d806000811461026d576040519150601f19603f3d011682016040523d82523d6000602084013e610272565b606091505b50509050806102b157604051639d11f56360e01b81523360048201526001600160a01b0384166024820152604481018390526064015b60405180910390fd5b505050565b6001546001600160a01b031633146103095760405162461bcd60e51b815260206004820152601660248201527526bab9ba10313290383937b837b9b2b21037bbb732b960511b60448201526064016102a8565b60008054336001600160a01b0319808316821784556001805490911690556040516001600160a01b0390921692909183917f8be0079c531659141344cd1fd0a4f28419497f9722a3daafe3b4186f6b6457e091a350565b6040805160a081019091526001600160a01b03831660c08201526000908060e0810160408051808303601f190181529181529082525133602482015260209091019060440160408051601f19818403018152919052602080820180516001600160e01b03166335313c2160e11b17905290825201600060405190808252806020026020018201604052801561041b57816020015b60408051808201909152600080825260208201528152602001906001900390816103f45790505b508152602001600184600181111561043557610435610969565b14610441576000610463565b7f00000000000000000000000000000000000000000000000000000000000000005b6001600160a01b0316815260200160405180602001604052806000815250815250905060007f00000000000000000000000000000000000000000000000000000000000000006001600160a01b03166320487ded86846040518363ffffffff1660e01b81526004016104d69291906109c5565b602060405180830381865afa1580156104f3573d6000803e3d6000fd5b505050506040513d601f19601f82011682018060405250810190610517919061092e565b90506000600184600181111561052f5761052f610969565b036106805760405163095ea7b360e01b81526001600160a01b037f000000000000000000000000000000000000000000000000000000000000000081166004830152602482018490527f0000000000000000000000000000000000000000000000000000000000000000169063095ea7b3906044016020604051808303816000875af11580156105c3573d6000803e3d6000fd5b505050506040513d601f19601f820116820180604052508101906105e79190610947565b506040516396f4e9f960e01b81526001600160a01b037f000000000000000000000000000000000000000000000000000000000000000016906396f4e9f99061063690899087906004016109c5565b6020604051808303816000875af1158015610655573d6000803e3d6000fd5b505050506040513d601f19601f82011682018060405250810190610679919061092e565b9050610716565b6040516396f4e9f960e01b81526001600160a01b037f000000000000000000000000000000000000000000000000000000000000000016906396f4e9f99084906106d0908a9088906004016109c5565b60206040518083038185885af11580156106ee573d6000803e3d6000fd5b50505050506040513d601f19601f82011682018060405250810190610713919061092e565b90505b6040518181527f54791b38f3859327992a1ca0590ad3c0f08feba98d1a4f56ab0dca74d203392a9060200160405180910390a1505050505050565b610759610765565b610762816107ba565b50565b6000546001600160a01b031633146107b85760405162461bcd60e51b815260206004820152601660248201527527b7363c9031b0b63630b1363290313c9037bbb732b960511b60448201526064016102a8565b565b336001600160a01b038216036108125760405162461bcd60e51b815260206004820152601760248201527f43616e6e6f74207472616e7366657220746f2073656c6600000000000000000060448201526064016102a8565b600180546001600160a01b0319166001600160a01b0383811691821790925560008054604051929316917fed8889f560326eb138920d842192f0eb3dd22b4f139c87a2c57538e05bae12789190a350565b80356001600160a01b038116811461087a57600080fd5b919050565b6000806040838503121561089257600080fd5b61089b83610863565b91506108a960208401610863565b90509250929050565b6000602082840312156108c457600080fd5b6108cd82610863565b9392505050565b6000806000606084860312156108e957600080fd5b833567ffffffffffffffff8116811461090157600080fd5b925061090f60208501610863565b915060408401356002811061092357600080fd5b809150509250925092565b60006020828403121561094057600080fd5b5051919050565b60006020828403121561095957600080fd5b815180151581146108cd57600080fd5b634e487b7160e01b600052602160045260246000fd5b6000815180845260005b818110156109a557602081850181015186830182015201610989565b506000602082860101526020601f19601f83011685010191505092915050565b6000604067ffffffffffffffff8516835260208181850152845160a0838601526109f260e086018261097f565b905081860151603f1980878403016060880152610a0f838361097f565b88860151888203830160808a01528051808352908601945060009350908501905b80841015610a6257845180516001600160a01b0316835286015186830152938501936001939093019290860190610a30565b5060608901516001600160a01b031660a08901526080890151888203830160c08a01529550610a91818761097f565b9a995050505050505050505056fea264697066735822122073995fc8c1ad1c57d5dc2dcc406122e2311e3d8a6a15d8000b569de795dbf20664736f6c63430008130033",
    "linkReferences": {}
  },
  "methodIdentifiers": {
    "acceptOwnership()": "79ba5097",
    "mint(uint64,address,uint8)": "ec99afa2",
    "owner()": "8da5cb5b",
    "transferOwnership(address)": "f2fde38b",
    "withdraw(address)": "51cff8d9",
    "withdrawToken(address,address)": "3aeac4e1"
  },
  "id": 53
}