{
  "abi": [
    {
      "inputs": [
        {
          "internalType": "address",
          "name": "router",
          "type": "address"
        },
        {
          "internalType": "address",
          "name": "link",
          "type": "address"
        }
      ],
      "stateMutability": "nonpayable",
      "type": "constructor"
    },
    {
      "inputs": [
        {
          "internalType": "address",
          "name": "owner",
          "type": "address"
        },
        {
          "internalType": "address",
          "name": "target",
          "type": "address"
        },
        {
          "internalType": "uint256",
          "name": "value",
          "type": "uint256"
        }
      ],
      "name": "FailedToWithdrawEth",
      "type": "error"
    },
    {
      "anonymous": false,
      "inputs": [
        {
          "indexed": false,
          "internalType": "bytes32",
          "name": "messageId",
          "type": "bytes32"
        }
      ],
      "name": "MessageSent",
      "type": "event"
    },
    {
      "anonymous": false,
      "inputs": [
        {
          "indexed": true,
          "internalType": "address",
          "name": "from",
          "type": "address"
        },
        {
          "indexed": true,
          "internalType": "address",
          "name": "to",
          "type": "address"
        }
      ],
      "name": "OwnershipTransferRequested",
      "type": "event"
    },
    {
      "anonymous": false,
      "inputs": [
        {
          "indexed": true,
          "internalType": "address",
          "name": "from",
          "type": "address"
        },
        {
          "indexed": true,
          "internalType": "address",
          "name": "to",
          "type": "address"
        }
      ],
      "name": "OwnershipTransferred",
      "type": "event"
    },
    {
      "inputs": [],
      "name": "acceptOwnership",
      "outputs": [],
      "stateMutability": "nonpayable",
      "type": "function"
    },
    {
      "inputs": [],
      "name": "owner",
      "outputs": [
        {
          "internalType": "address",
          "name": "",
          "type": "address"
        }
      ],
      "stateMutability": "view",
      "type": "function"
    },
    {
      "inputs": [
        {
          "internalType": "uint64",
          "name": "destinationChainSelector",
          "type": "uint64"
        },
        {
          "internalType": "address",
          "name": "receiver",
          "type": "address"
        },
        {
          "internalType": "string",
          "name": "messageText",
          "type": "string"
        },
        {
          "internalType": "enum BasicMessageSender.PayFeesIn",
          "name": "payFeesIn",
          "type": "uint8"
        }
      ],
      "name": "send",
      "outputs": [
        {
          "internalType": "bytes32",
          "name": "messageId",
          "type": "bytes32"
        }
      ],
      "stateMutability": "nonpayable",
      "type": "function"
    },
    {
      "inputs": [
        {
          "internalType": "address",
          "name": "to",
          "type": "address"
        }
      ],
      "name": "transferOwnership",
      "outputs": [],
      "stateMutability": "nonpayable",
      "type": "function"
    },
    {
      "inputs": [
        {
          "internalType": "address",
          "name": "beneficiary",
          "type": "address"
        }
      ],
      "name": "withdraw",
      "outputs": [],
      "stateMutability": "nonpayable",
      "type": "function"
    },
    {
      "inputs": [
        {
          "internalType": "address",
          "name": "beneficiary",
          "type": "address"
        },
        {
          "internalType": "address",
          "name": "token",
          "type": "address"
        }
      ],
      "name": "withdrawToken",
      "outputs": [],
      "stateMutability": "nonpayable",
      "type": "function"
    },
    {
      "stateMutability": "payable",
      "type": "receive"
    }
  ],
  "bytecode": {
    "object": "0x60c060405234801561001057600080fd5b50604051610d7b380380610d7b83398101604081905261002f91610207565b33806000816100855760405162461bcd60e51b815260206004820152601860248201527f43616e6e6f7420736574206f776e657220746f207a65726f000000000000000060448201526064015b60405180910390fd5b600080546001600160a01b0319166001600160a01b03848116919091179091558116156100b5576100b581610142565b5050506001600160a01b03828116608081905290821660a081905260405163095ea7b360e01b8152600481019290925260001960248301529063095ea7b3906044016020604051808303816000875af1158015610116573d6000803e3d6000fd5b505050506040513d601f19601f8201168201806040525081019061013a919061023a565b505050610263565b336001600160a01b0382160361019a5760405162461bcd60e51b815260206004820152601760248201527f43616e6e6f74207472616e7366657220746f2073656c66000000000000000000604482015260640161007c565b600180546001600160a01b0319166001600160a01b0383811691821790925560008054604051929316917fed8889f560326eb138920d842192f0eb3dd22b4f139c87a2c57538e05bae12789190a350565b80516001600160a01b038116811461020257600080fd5b919050565b6000806040838503121561021a57600080fd5b610223836101eb565b9150610231602084016101eb565b90509250929050565b60006020828403121561024c57600080fd5b8151801515811461025c57600080fd5b9392505050565b60805160a051610ae5610296600039600061020401526000818161024b0152818161030a01526103a20152610ae56000f3fe6080604052600436106100595760003560e01c80632c101b17146100655780633aeac4e11461009857806351cff8d9146100ba57806379ba5097146100da5780638da5cb5b146100ef578063f2fde38b1461011757600080fd5b3661006057005b600080fd5b34801561007157600080fd5b506100856100803660046107e9565b610137565b6040519081526020015b60405180910390f35b3480156100a457600080fd5b506100b86100b33660046108d6565b61045e565b005b3480156100c657600080fd5b506100b86100d5366004610909565b61054e565b3480156100e657600080fd5b506100b86105ec565b3480156100fb57600080fd5b506000546040516001600160a01b03909116815260200161008f565b34801561012357600080fd5b506100b8610132366004610909565b610696565b6040805160a081019091526001600160a01b03841660c082015260009081908060e081016040516020818303038152906040528152602001856040516020016101809190610971565b60408051601f19818403018152919052815260200160006040519080825280602002602001820160405280156101dc57816020015b60408051808201909152600080825260208201528152602001906001900390816101b55790505b50815260200160018560018111156101f6576101f6610984565b14610202576000610224565b7f00000000000000000000000000000000000000000000000000000000000000005b6001600160a01b0316815260200160405180602001604052806000815250815250905060007f00000000000000000000000000000000000000000000000000000000000000006001600160a01b03166320487ded88846040518363ffffffff1660e01b815260040161029792919061099a565b602060405180830381865afa1580156102b4573d6000803e3d6000fd5b505050506040513d601f19601f820116820180604052508101906102d89190610a74565b905060018460018111156102ee576102ee610984565b0361038b576040516396f4e9f960e01b81526001600160a01b037f000000000000000000000000000000000000000000000000000000000000000016906396f4e9f990610341908a90869060040161099a565b6020604051808303816000875af1158015610360573d6000803e3d6000fd5b505050506040513d601f19601f820116820180604052508101906103849190610a74565b9250610421565b6040516396f4e9f960e01b81526001600160a01b037f000000000000000000000000000000000000000000000000000000000000000016906396f4e9f99083906103db908b90879060040161099a565b60206040518083038185885af11580156103f9573d6000803e3d6000fd5b50505050506040513d601f19601f8201168201806040525081019061041e9190610a74565b92505b6040518381527f54791b38f3859327992a1ca0590ad3c0f08feba98d1a4f56ab0dca74d203392a9060200160405180910390a15050949350505050565b6104666106aa565b6040516370a0823160e01b81523060048201526000906001600160a01b038316906370a0823190602401602060405180830381865afa1580156104ad573d6000803e3d6000fd5b505050506040513d601f19601f820116820180604052508101906104d19190610a74565b60405163a9059cbb60e01b81526001600160a01b038581166004830152602482018390529192509083169063a9059cbb906044016020604051808303816000875af1158015610524573d6000803e3d6000fd5b505050506040513d601f19601f820116820180604052508101906105489190610a8d565b50505050565b6105566106aa565b60405147906000906001600160a01b0384169083908381818185875af1925050503d80600081146105a3576040519150601f19603f3d011682016040523d82523d6000602084013e6105a8565b606091505b50509050806105e757604051639d11f56360e01b81523360048201526001600160a01b0384166024820152604481018390526064015b60405180910390fd5b505050565b6001546001600160a01b0316331461063f5760405162461bcd60e51b815260206004820152601660248201527526bab9ba10313290383937b837b9b2b21037bbb732b960511b60448201526064016105de565b60008054336001600160a01b0319808316821784556001805490911690556040516001600160a01b0390921692909183917f8be0079c531659141344cd1fd0a4f28419497f9722a3daafe3b4186f6b6457e091a350565b61069e6106aa565b6106a7816106ff565b50565b6000546001600160a01b031633146106fd5760405162461bcd60e51b815260206004820152601660248201527527b7363c9031b0b63630b1363290313c9037bbb732b960511b60448201526064016105de565b565b336001600160a01b038216036107575760405162461bcd60e51b815260206004820152601760248201527f43616e6e6f74207472616e7366657220746f2073656c6600000000000000000060448201526064016105de565b600180546001600160a01b0319166001600160a01b0383811691821790925560008054604051929316917fed8889f560326eb138920d842192f0eb3dd22b4f139c87a2c57538e05bae12789190a350565b80356001600160a01b03811681146107bf57600080fd5b919050565b634e487b7160e01b600052604160045260246000fd5b8035600281106107bf57600080fd5b600080600080608085870312156107ff57600080fd5b843567ffffffffffffffff808216821461081857600080fd5b819550610827602088016107a8565b9450604087013591508082111561083d57600080fd5b818701915087601f83011261085157600080fd5b813581811115610863576108636107c4565b604051601f8201601f19908116603f0116810190838211818310171561088b5761088b6107c4565b816040528281528a60208487010111156108a457600080fd5b8260208601602083013760006020848301015280965050505050506108cb606086016107da565b905092959194509250565b600080604083850312156108e957600080fd5b6108f2836107a8565b9150610900602084016107a8565b90509250929050565b60006020828403121561091b57600080fd5b610924826107a8565b9392505050565b6000815180845260005b8181101561095157602081850181015186830182015201610935565b506000602082860101526020601f19601f83011685010191505092915050565b602081526000610924602083018461092b565b634e487b7160e01b600052602160045260246000fd5b6000604067ffffffffffffffff8516835260208181850152845160a0838601526109c760e086018261092b565b905081860151603f19808784030160608801526109e4838361092b565b88860151888203830160808a01528051808352908601945060009350908501905b80841015610a3757845180516001600160a01b0316835286015186830152938501936001939093019290860190610a05565b5060608901516001600160a01b031660a08901526080890151888203830160c08a01529550610a66818761092b565b9a9950505050505050505050565b600060208284031215610a8657600080fd5b5051919050565b600060208284031215610a9f57600080fd5b8151801515811461092457600080fdfea26469706673582212200cd575269ca97b90f8e287728ff348d0f50ef85c85d4bb9570f11721529db25264736f6c63430008130033",
    "linkReferences": {}
  },
  "methodIdentifiers": {
    "acceptOwnership()": "79ba5097",
    "owner()": "8da5cb5b",
    "send(uint64,address,string,uint8)": "2c101b17",
    "transferOwnership(address)": "f2fde38b",
    "withdraw(address)": "51cff8d9",
    "withdrawToken(address,address)": "3aeac4e1"
  },
  "id": 48
}