{
  "abi": [
    {
      "inputs": [],
      "stateMutability": "nonpayable",
      "type": "constructor"
    },
    {
      "anonymous": false,
      "inputs": [
        {
          "indexed": true,
          "internalType": "address",
          "name": "owner",
          "type": "address"
        },
        {
          "indexed": true,
          "internalType": "address",
          "name": "approved",
          "type": "address"
        },
        {
          "indexed": true,
          "internalType": "uint256",
          "name": "tokenId",
          "type": "uint256"
        }
      ],
      "name": "Approval",
      "type": "event"
    },
    {
      "anonymous": false,
      "inputs": [
        {
          "indexed": true,
          "internalType": "address",
          "name": "owner",
          "type": "address"
        },
        {
          "indexed": true,
          "internalType": "address",
          "name": "operator",
          "type": "address"
        },
        {
          "indexed": false,
          "internalType": "bool",
          "name": "approved",
          "type": "bool"
        }
      ],
      "name": "ApprovalForAll",
      "type": "event"
    },
    {
      "anonymous": false,
      "inputs": [
        {
          "indexed": false,
          "internalType": "uint256",
          "name": "_fromTokenId",
          "type": "uint256"
        },
        {
          "indexed": false,
          "internalType": "uint256",
          "name": "_toTokenId",
          "type": "uint256"
        }
      ],
      "name": "BatchMetadataUpdate",
      "type": "event"
    },
    {
      "anonymous": false,
      "inputs": [
        {
          "indexed": false,
          "internalType": "uint256",
          "name": "_tokenId",
          "type": "uint256"
        }
      ],
      "name": "MetadataUpdate",
      "type": "event"
    },
    {
      "anonymous": false,
      "inputs": [
        {
          "indexed": true,
          "internalType": "address",
          "name": "previousOwner",
          "type": "address"
        },
        {
          "indexed": true,
          "internalType": "address",
          "name": "newOwner",
          "type": "address"
        }
      ],
      "name": "OwnershipTransferred",
      "type": "event"
    },
    {
      "anonymous": false,
      "inputs": [
        {
          "indexed": true,
          "internalType": "address",
          "name": "from",
          "type": "address"
        },
        {
          "indexed": true,
          "internalType": "address",
          "name": "to",
          "type": "address"
        },
        {
          "indexed": true,
          "internalType": "uint256",
          "name": "tokenId",
          "type": "uint256"
        }
      ],
      "name": "Transfer",
      "type": "event"
    },
    {
      "inputs": [
        {
          "internalType": "address",
          "name": "to",
          "type": "address"
        },
        {
          "internalType": "uint256",
          "name": "tokenId",
          "type": "uint256"
        }
      ],
      "name": "approve",
      "outputs": [],
      "stateMutability": "nonpayable",
      "type": "function"
    },
    {
      "inputs": [
        {
          "internalType": "address",
          "name": "owner",
          "type": "address"
        }
      ],
      "name": "balanceOf",
      "outputs": [
        {
          "internalType": "uint256",
          "name": "",
          "type": "uint256"
        }
      ],
      "stateMutability": "view",
      "type": "function"
    },
    {
      "inputs": [
        {
          "internalType": "uint256",
          "name": "tokenId",
          "type": "uint256"
        }
      ],
      "name": "getApproved",
      "outputs": [
        {
          "internalType": "address",
          "name": "",
          "type": "address"
        }
      ],
      "stateMutability": "view",
      "type": "function"
    },
    {
      "inputs": [
        {
          "internalType": "address",
          "name": "owner",
          "type": "address"
        },
        {
          "internalType": "address",
          "name": "operator",
          "type": "address"
        }
      ],
      "name": "isApprovedForAll",
      "outputs": [
        {
          "internalType": "bool",
          "name": "",
          "type": "bool"
        }
      ],
      "stateMutability": "view",
      "type": "function"
    },
    {
      "inputs": [
        {
          "internalType": "address",
          "name": "to",
          "type": "address"
        }
      ],
      "name": "mint",
      "outputs": [],
      "stateMutability": "nonpayable",
      "type": "function"
    },
    {
      "inputs": [],
      "name": "name",
      "outputs": [
        {
          "internalType": "string",
          "name": "",
          "type": "string"
        }
      ],
      "stateMutability": "view",
      "type": "function"
    },
    {
      "inputs": [],
      "name": "owner",
      "outputs": [
        {
          "internalType": "address",
          "name": "",
          "type": "address"
        }
      ],
      "stateMutability": "view",
      "type": "function"
    },
    {
      "inputs": [
        {
          "internalType": "uint256",
          "name": "tokenId",
          "type": "uint256"
        }
      ],
      "name": "ownerOf",
      "outputs": [
        {
          "internalType": "address",
          "name": "",
          "type": "address"
        }
      ],
      "stateMutability": "view",
      "type": "function"
    },
    {
      "inputs": [],
      "name": "renounceOwnership",
      "outputs": [],
      "stateMutability": "nonpayable",
      "type": "function"
    },
    {
      "inputs": [
        {
          "internalType": "address",
          "name": "from",
          "type": "address"
        },
        {
          "internalType": "address",
          "name": "to",
          "type": "address"
        },
        {
          "internalType": "uint256",
          "name": "tokenId",
          "type": "uint256"
        }
      ],
      "name": "safeTransferFrom",
      "outputs": [],
      "stateMutability": "nonpayable",
      "type": "function"
    },
    {
      "inputs": [
        {
          "internalType": "address",
          "name": "from",
          "type": "address"
        },
        {
          "internalType": "address",
          "name": "to",
          "type": "address"
        },
        {
          "internalType": "uint256",
          "name": "tokenId",
          "type": "uint256"
        },
        {
          "internalType": "bytes",
          "name": "data",
          "type": "bytes"
        }
      ],
      "name": "safeTransferFrom",
      "outputs": [],
      "stateMutability": "nonpayable",
      "type": "function"
    },
    {
      "inputs": [
        {
          "internalType": "address",
          "name": "operator",
          "type": "address"
        },
        {
          "internalType": "bool",
          "name": "approved",
          "type": "bool"
        }
      ],
      "name": "setApprovalForAll",
      "outputs": [],
      "stateMutability": "nonpayable",
      "type": "function"
    },
    {
      "inputs": [
        {
          "internalType": "bytes4",
          "name": "interfaceId",
          "type": "bytes4"
        }
      ],
      "name": "supportsInterface",
      "outputs": [
        {
          "internalType": "bool",
          "name": "",
          "type": "bool"
        }
      ],
      "stateMutability": "view",
      "type": "function"
    },
    {
      "inputs": [],
      "name": "symbol",
      "outputs": [
        {
          "internalType": "string",
          "name": "",
          "type": "string"
        }
      ],
      "stateMutability": "view",
      "type": "function"
    },
    {
      "inputs": [
        {
          "internalType": "uint256",
          "name": "tokenId",
          "type": "uint256"
        }
      ],
      "name": "tokenURI",
      "outputs": [
        {
          "internalType": "string",
          "name": "",
          "type": "string"
        }
      ],
      "stateMutability": "view",
      "type": "function"
    },
    {
      "inputs": [
        {
          "internalType": "address",
          "name": "from",
          "type": "address"
        },
        {
          "internalType": "address",
          "name": "to",
          "type": "address"
        },
        {
          "internalType": "uint256",
          "name": "tokenId",
          "type": "uint256"
        }
      ],
      "name": "transferFrom",
      "outputs": [],
      "stateMutability": "nonpayable",
      "type": "function"
    },
    {
      "inputs": [
        {
          "internalType": "address",
          "name": "newOwner",
          "type": "address"
        }
      ],
      "name": "transferOwnership",
      "outputs": [],
      "stateMutability": "nonpayable",
      "type": "function"
    }
  ],
  "bytecode": {
    "object": "0x60806040523480156200001157600080fd5b5060405180604001604052806005815260200164135e53919560da1b815250604051806040016040528060048152602001631353919560e21b81525081600090816200005e91906200018b565b5060016200006d82826200018b565b5050506200008a620000846200009060201b60201c565b62000094565b62000257565b3390565b600780546001600160a01b038381166001600160a01b0319831681179093556040519116919082907f8be0079c531659141344cd1fd0a4f28419497f9722a3daafe3b4186f6b6457e090600090a35050565b634e487b7160e01b600052604160045260246000fd5b600181811c908216806200011157607f821691505b6020821081036200013257634e487b7160e01b600052602260045260246000fd5b50919050565b601f8211156200018657600081815260208120601f850160051c81016020861015620001615750805b601f850160051c820191505b8181101562000182578281556001016200016d565b5050505b505050565b81516001600160401b03811115620001a757620001a7620000e6565b620001bf81620001b88454620000fc565b8462000138565b602080601f831160018114620001f75760008415620001de5750858301515b600019600386901b1c1916600185901b17855562000182565b600085815260208120601f198616915b82811015620002285788860151825594840194600190910190840162000207565b5085821015620002475787850151600019600388901b60f8161c191681555b5050505050600190811b01905550565b61182580620002676000396000f3fe608060405234801561001057600080fd5b506004361061010b5760003560e01c806370a08231116100a2578063a22cb46511610071578063a22cb4651461021b578063b88d4fde1461022e578063c87b56dd14610241578063e985e9c514610254578063f2fde38b1461029057600080fd5b806370a08231146101d9578063715018a6146101fa5780638da5cb5b1461020257806395d89b411461021357600080fd5b806323b872dd116100de57806323b872dd1461018d57806342842e0e146101a05780636352211e146101b35780636a627842146101c657600080fd5b806301ffc9a71461011057806306fdde0314610138578063081812fc1461014d578063095ea7b314610178575b600080fd5b61012361011e36600461124f565b6102a3565b60405190151581526020015b60405180910390f35b6101406102ce565b60405161012f91906112bc565b61016061015b3660046112cf565b610360565b6040516001600160a01b03909116815260200161012f565b61018b610186366004611304565b610387565b005b61018b61019b36600461132e565b6104a1565b61018b6101ae36600461132e565b6104d2565b6101606101c13660046112cf565b6104ed565b61018b6101d436600461136a565b61054d565b6101ec6101e736600461136a565b610591565b60405190815260200161012f565b61018b610617565b6007546001600160a01b0316610160565b61014061062b565b61018b610229366004611385565b61063a565b61018b61023c3660046113d7565b610649565b61014061024f3660046112cf565b610681565b6101236102623660046114b3565b6001600160a01b03918216600090815260056020908152604080832093909416825291909152205460ff1690565b61018b61029e36600461136a565b610791565b60006001600160e01b03198216632483248360e11b14806102c857506102c88261080a565b92915050565b6060600080546102dd906114e6565b80601f0160208091040260200160405190810160405280929190818152602001828054610309906114e6565b80156103565780601f1061032b57610100808354040283529160200191610356565b820191906000526020600020905b81548152906001019060200180831161033957829003601f168201915b5050505050905090565b600061036b8261085a565b506000908152600460205260409020546001600160a01b031690565b6000610392826104ed565b9050806001600160a01b0316836001600160a01b0316036104045760405162461bcd60e51b815260206004820152602160248201527f4552433732313a20617070726f76616c20746f2063757272656e74206f776e656044820152603960f91b60648201526084015b60405180910390fd5b336001600160a01b038216148061042057506104208133610262565b6104925760405162461bcd60e51b815260206004820152603d60248201527f4552433732313a20617070726f76652063616c6c6572206973206e6f7420746f60448201527f6b656e206f776e6572206f7220617070726f76656420666f7220616c6c00000060648201526084016103fb565b61049c83836108b9565b505050565b6104ab3382610927565b6104c75760405162461bcd60e51b81526004016103fb90611520565b61049c8383836109a5565b61049c83838360405180602001604052806000815250610649565b6000818152600260205260408120546001600160a01b0316806102c85760405162461bcd60e51b8152602060048201526018602482015277115490cdcc8c4e881a5b9d985b1a59081d1bdad95b88125160421b60448201526064016103fb565b610555610b09565b61056181600854610b63565b61058560085460405180608001604052806054815260200161179c60549139610b7d565b50600880546001019055565b60006001600160a01b0382166105fb5760405162461bcd60e51b815260206004820152602960248201527f4552433732313a2061646472657373207a65726f206973206e6f7420612076616044820152683634b21037bbb732b960b91b60648201526084016103fb565b506001600160a01b031660009081526003602052604090205490565b61061f610b09565b6106296000610c48565b565b6060600180546102dd906114e6565b610645338383610c9a565b5050565b6106533383610927565b61066f5760405162461bcd60e51b81526004016103fb90611520565b61067b84848484610d68565b50505050565b606061068c8261085a565b600082815260066020526040812080546106a5906114e6565b80601f01602080910402602001604051908101604052809291908181526020018280546106d1906114e6565b801561071e5780601f106106f35761010080835404028352916020019161071e565b820191906000526020600020905b81548152906001019060200180831161070157829003601f168201915b50505050509050600061073c60408051602081019091526000815290565b9050805160000361074e575092915050565b81511561078057808260405160200161076892919061156d565b60405160208183030381529060405292505050919050565b61078984610d9b565b949350505050565b610799610b09565b6001600160a01b0381166107fe5760405162461bcd60e51b815260206004820152602660248201527f4f776e61626c653a206e6577206f776e657220697320746865207a65726f206160448201526564647265737360d01b60648201526084016103fb565b61080781610c48565b50565b60006001600160e01b031982166380ac58cd60e01b148061083b57506001600160e01b03198216635b5e139f60e01b145b806102c857506301ffc9a760e01b6001600160e01b03198316146102c8565b6000818152600260205260409020546001600160a01b03166108075760405162461bcd60e51b8152602060048201526018602482015277115490cdcc8c4e881a5b9d985b1a59081d1bdad95b88125160421b60448201526064016103fb565b600081815260046020526040902080546001600160a01b0319166001600160a01b03841690811790915581906108ee826104ed565b6001600160a01b03167f8c5be1e5ebec7d5bd14f71427d1e84f3dd0314c0f7b2291e5b200ac8c7c3b92560405160405180910390a45050565b600080610933836104ed565b9050806001600160a01b0316846001600160a01b0316148061097a57506001600160a01b0380821660009081526005602090815260408083209388168352929052205460ff165b806107895750836001600160a01b031661099384610360565b6001600160a01b031614949350505050565b826001600160a01b03166109b8826104ed565b6001600160a01b0316146109de5760405162461bcd60e51b81526004016103fb9061159c565b6001600160a01b038216610a405760405162461bcd60e51b8152602060048201526024808201527f4552433732313a207472616e7366657220746f20746865207a65726f206164646044820152637265737360e01b60648201526084016103fb565b826001600160a01b0316610a53826104ed565b6001600160a01b031614610a795760405162461bcd60e51b81526004016103fb9061159c565b600081815260046020908152604080832080546001600160a01b03199081169091556001600160a01b0387811680865260038552838620805460001901905590871680865283862080546001019055868652600290945282852080549092168417909155905184937fddf252ad1be2c89b69c2b068fc378daa952ba7f163c4a11628f55a4df523b3ef91a4505050565b6007546001600160a01b031633146106295760405162461bcd60e51b815260206004820181905260248201527f4f776e61626c653a2063616c6c6572206973206e6f7420746865206f776e657260448201526064016103fb565b610645828260405180602001604052806000815250610e0f565b6000828152600260205260409020546001600160a01b0316610bf85760405162461bcd60e51b815260206004820152602e60248201527f45524337323155524953746f726167653a2055524920736574206f66206e6f6e60448201526d32bc34b9ba32b73a103a37b5b2b760911b60648201526084016103fb565b6000828152600660205260409020610c10828261162f565b506040518281527ff8e1a15aba9398e019f0b49df1a4fde98ee17ae345cb5f6b5e2c27f5033e8ce79060200160405180910390a15050565b600780546001600160a01b038381166001600160a01b0319831681179093556040519116919082907f8be0079c531659141344cd1fd0a4f28419497f9722a3daafe3b4186f6b6457e090600090a35050565b816001600160a01b0316836001600160a01b031603610cfb5760405162461bcd60e51b815260206004820152601960248201527f4552433732313a20617070726f766520746f2063616c6c65720000000000000060448201526064016103fb565b6001600160a01b03838116600081815260056020908152604080832094871680845294825291829020805460ff191686151590811790915591519182527f17307eab39ab6107e8899845ad3d59bd9653f200f220920489ca2b5937696c31910160405180910390a3505050565b610d738484846109a5565b610d7f84848484610e42565b61067b5760405162461bcd60e51b81526004016103fb906116ef565b6060610da68261085a565b6000610dbd60408051602081019091526000815290565b90506000815111610ddd5760405180602001604052806000815250610e08565b80610de784610f43565b604051602001610df892919061156d565b6040516020818303038152906040525b9392505050565b610e198383610fd6565b610e266000848484610e42565b61049c5760405162461bcd60e51b81526004016103fb906116ef565b60006001600160a01b0384163b15610f3857604051630a85bd0160e11b81526001600160a01b0385169063150b7a0290610e86903390899088908890600401611741565b6020604051808303816000875af1925050508015610ec1575060408051601f3d908101601f19168201909252610ebe9181019061177e565b60015b610f1e573d808015610eef576040519150601f19603f3d011682016040523d82523d6000602084013e610ef4565b606091505b508051600003610f165760405162461bcd60e51b81526004016103fb906116ef565b805181602001fd5b6001600160e01b031916630a85bd0160e11b149050610789565b506001949350505050565b60606000610f5083611161565b600101905060008167ffffffffffffffff811115610f7057610f706113c1565b6040519080825280601f01601f191660200182016040528015610f9a576020820181803683370190505b5090508181016020015b600019016f181899199a1a9b1b9c1cb0b131b232b360811b600a86061a8153600a8504945084610fa457509392505050565b6001600160a01b03821661102c5760405162461bcd60e51b815260206004820181905260248201527f4552433732313a206d696e7420746f20746865207a65726f206164647265737360448201526064016103fb565b6000818152600260205260409020546001600160a01b0316156110915760405162461bcd60e51b815260206004820152601c60248201527f4552433732313a20746f6b656e20616c7265616479206d696e7465640000000060448201526064016103fb565b6000818152600260205260409020546001600160a01b0316156110f65760405162461bcd60e51b815260206004820152601c60248201527f4552433732313a20746f6b656e20616c7265616479206d696e7465640000000060448201526064016103fb565b6001600160a01b038216600081815260036020908152604080832080546001019055848352600290915280822080546001600160a01b0319168417905551839291907fddf252ad1be2c89b69c2b068fc378daa952ba7f163c4a11628f55a4df523b3ef908290a45050565b60008072184f03e93ff9f4daa797ed6e38ed64bf6a1f0160401b83106111a05772184f03e93ff9f4daa797ed6e38ed64bf6a1f0160401b830492506040015b6d04ee2d6d415b85acef810000000083106111cc576d04ee2d6d415b85acef8100000000830492506020015b662386f26fc1000083106111ea57662386f26fc10000830492506010015b6305f5e1008310611202576305f5e100830492506008015b612710831061121657612710830492506004015b60648310611228576064830492506002015b600a83106102c85760010192915050565b6001600160e01b03198116811461080757600080fd5b60006020828403121561126157600080fd5b8135610e0881611239565b60005b8381101561128757818101518382015260200161126f565b50506000910152565b600081518084526112a881602086016020860161126c565b601f01601f19169290920160200192915050565b602081526000610e086020830184611290565b6000602082840312156112e157600080fd5b5035919050565b80356001600160a01b03811681146112ff57600080fd5b919050565b6000806040838503121561131757600080fd5b611320836112e8565b946020939093013593505050565b60008060006060848603121561134357600080fd5b61134c846112e8565b925061135a602085016112e8565b9150604084013590509250925092565b60006020828403121561137c57600080fd5b610e08826112e8565b6000806040838503121561139857600080fd5b6113a1836112e8565b9150602083013580151581146113b657600080fd5b809150509250929050565b634e487b7160e01b600052604160045260246000fd5b600080600080608085870312156113ed57600080fd5b6113f6856112e8565b9350611404602086016112e8565b925060408501359150606085013567ffffffffffffffff8082111561142857600080fd5b818701915087601f83011261143c57600080fd5b81358181111561144e5761144e6113c1565b604051601f8201601f19908116603f01168101908382118183101715611476576114766113c1565b816040528281528a602084870101111561148f57600080fd5b82602086016020830137600060208483010152809550505050505092959194509250565b600080604083850312156114c657600080fd5b6114cf836112e8565b91506114dd602084016112e8565b90509250929050565b600181811c908216806114fa57607f821691505b60208210810361151a57634e487b7160e01b600052602260045260246000fd5b50919050565b6020808252602d908201527f4552433732313a2063616c6c6572206973206e6f7420746f6b656e206f776e6560408201526c1c881bdc88185c1c1c9bdd9959609a1b606082015260800190565b6000835161157f81846020880161126c565b83519083019061159381836020880161126c565b01949350505050565b60208082526025908201527f4552433732313a207472616e736665722066726f6d20696e636f72726563742060408201526437bbb732b960d91b606082015260800190565b601f82111561049c57600081815260208120601f850160051c810160208610156116085750805b601f850160051c820191505b8181101561162757828155600101611614565b505050505050565b815167ffffffffffffffff811115611649576116496113c1565b61165d8161165784546114e6565b846115e1565b602080601f831160018114611692576000841561167a5750858301515b600019600386901b1c1916600185901b178555611627565b600085815260208120601f198616915b828110156116c1578886015182559484019460019091019084016116a2565b50858210156116df5787850151600019600388901b60f8161c191681555b5050505050600190811b01905550565b60208082526032908201527f4552433732313a207472616e7366657220746f206e6f6e20455243373231526560408201527131b2b4bb32b91034b6b83632b6b2b73a32b960711b606082015260800190565b6001600160a01b038581168252841660208201526040810183905260806060820181905260009061177490830184611290565b9695505050505050565b60006020828403121561179057600080fd5b8151610e088161123956fe68747470733a2f2f697066732e696f2f697066732f516d59754b593435417138374c654c315235646862316871484c70365a46624a614350386a78714b4d314d5836792f626162655f727574685f312e6a736f6ea2646970667358221220922eb5ec7dd754c86c7ac4735612f6c17ec7e93d7465e25405b6edd55ef0b3ac64736f6c63430008130033",
    "linkReferences": {}
  },
  "methodIdentifiers": {
    "approve(address,uint256)": "095ea7b3",
    "balanceOf(address)": "70a08231",
    "getApproved(uint256)": "081812fc",
    "isApprovedForAll(address,address)": "e985e9c5",
    "mint(address)": "6a627842",
    "name()": "06fdde03",
    "owner()": "8da5cb5b",
    "ownerOf(uint256)": "6352211e",
    "renounceOwnership()": "715018a6",
    "safeTransferFrom(address,address,uint256)": "42842e0e",
    "safeTransferFrom(address,address,uint256,bytes)": "b88d4fde",
    "setApprovalForAll(address,bool)": "a22cb465",
    "supportsInterface(bytes4)": "01ffc9a7",
    "symbol()": "95d89b41",
    "tokenURI(uint256)": "c87b56dd",
    "transferFrom(address,address,uint256)": "23b872dd",
    "transferOwnership(address)": "f2fde38b"
  },
  "id": 52
}