{
  "abi": [
    {
      "inputs": [
        {
          "internalType": "address",
          "name": "router",
          "type": "address"
        },
        {
          "internalType": "address",
          "name": "link",
          "type": "address"
        }
      ],
      "stateMutability": "nonpayable",
      "type": "constructor"
    },
    {
      "inputs": [
        {
          "internalType": "address",
          "name": "owner",
          "type": "address"
        },
        {
          "internalType": "address",
          "name": "target",
          "type": "address"
        },
        {
          "internalType": "uint256",
          "name": "value",
          "type": "uint256"
        }
      ],
      "name": "FailedToWithdrawEth",
      "type": "error"
    },
    {
      "anonymous": false,
      "inputs": [
        {
          "indexed": false,
          "internalType": "bytes32",
          "name": "messageId",
          "type": "bytes32"
        }
      ],
      "name": "MessageSent",
      "type": "event"
    },
    {
      "anonymous": false,
      "inputs": [
        {
          "indexed": true,
          "internalType": "address",
          "name": "from",
          "type": "address"
        },
        {
          "indexed": true,
          "internalType": "address",
          "name": "to",
          "type": "address"
        }
      ],
      "name": "OwnershipTransferRequested",
      "type": "event"
    },
    {
      "anonymous": false,
      "inputs": [
        {
          "indexed": true,
          "internalType": "address",
          "name": "from",
          "type": "address"
        },
        {
          "indexed": true,
          "internalType": "address",
          "name": "to",
          "type": "address"
        }
      ],
      "name": "OwnershipTransferred",
      "type": "event"
    },
    {
      "inputs": [],
      "name": "acceptOwnership",
      "outputs": [],
      "stateMutability": "nonpayable",
      "type": "function"
    },
    {
      "inputs": [
        {
          "internalType": "uint64",
          "name": "chainSelector",
          "type": "uint64"
        }
      ],
      "name": "getSupportedTokens",
      "outputs": [
        {
          "internalType": "address[]",
          "name": "tokens",
          "type": "address[]"
        }
      ],
      "stateMutability": "view",
      "type": "function"
    },
    {
      "inputs": [],
      "name": "owner",
      "outputs": [
        {
          "internalType": "address",
          "name": "",
          "type": "address"
        }
      ],
      "stateMutability": "view",
      "type": "function"
    },
    {
      "inputs": [
        {
          "internalType": "uint64",
          "name": "destinationChainSelector",
          "type": "uint64"
        },
        {
          "internalType": "address",
          "name": "receiver",
          "type": "address"
        },
        {
          "components": [
            {
              "internalType": "address",
              "name": "token",
              "type": "address"
            },
            {
              "internalType": "uint256",
              "name": "amount",
              "type": "uint256"
            }
          ],
          "internalType": "struct Client.EVMTokenAmount[]",
          "name": "tokensToSendDetails",
          "type": "tuple[]"
        },
        {
          "internalType": "enum BasicTokenSender.PayFeesIn",
          "name": "payFeesIn",
          "type": "uint8"
        }
      ],
      "name": "send",
      "outputs": [],
      "stateMutability": "nonpayable",
      "type": "function"
    },
    {
      "inputs": [
        {
          "internalType": "address",
          "name": "to",
          "type": "address"
        }
      ],
      "name": "transferOwnership",
      "outputs": [],
      "stateMutability": "nonpayable",
      "type": "function"
    },
    {
      "inputs": [
        {
          "internalType": "address",
          "name": "beneficiary",
          "type": "address"
        }
      ],
      "name": "withdraw",
      "outputs": [],
      "stateMutability": "nonpayable",
      "type": "function"
    },
    {
      "inputs": [
        {
          "internalType": "address",
          "name": "beneficiary",
          "type": "address"
        },
        {
          "internalType": "address",
          "name": "token",
          "type": "address"
        }
      ],
      "name": "withdrawToken",
      "outputs": [],
      "stateMutability": "nonpayable",
      "type": "function"
    },
    {
      "stateMutability": "payable",
      "type": "receive"
    }
  ],
  "bytecode": {
    "object": "0x60e06040523480156200001157600080fd5b50604051620012313803806200123183398101604081905262000034916200021c565b33806000816200008b5760405162461bcd60e51b815260206004820152601860248201527f43616e6e6f7420736574206f776e657220746f207a65726f000000000000000060448201526064015b60405180910390fd5b600080546001600160a01b0319166001600160a01b0384811691909117909155811615620000be57620000be8162000154565b5050506001600160a01b03828116608081905290821660a0819052600560c05260405163095ea7b360e01b8152600481019290925260001960248301529063095ea7b3906044016020604051808303816000875af115801562000125573d6000803e3d6000fd5b505050506040513d601f19601f820116820180604052508101906200014b919062000254565b5050506200027f565b336001600160a01b03821603620001ae5760405162461bcd60e51b815260206004820152601760248201527f43616e6e6f74207472616e7366657220746f2073656c66000000000000000000604482015260640162000082565b600180546001600160a01b0319166001600160a01b0383811691821790925560008054604051929316917fed8889f560326eb138920d842192f0eb3dd22b4f139c87a2c57538e05bae12789190a350565b80516001600160a01b03811681146200021757600080fd5b919050565b600080604083850312156200023057600080fd5b6200023b83620001ff565b91506200024b60208401620001ff565b90509250929050565b6000602082840312156200026757600080fd5b815180151581146200027857600080fd5b9392505050565b60805160a05160c051610f66620002cb60003960006103b00152600061066f015260008181610545015281816106b6015281816107770152818161080f01526109010152610f666000f3fe6080604052600436106100745760003560e01c80638da5cb5b1161004e5780638da5cb5b146100d7578063b6d2440c14610104578063f2fde38b14610124578063fbca3b741461014457600080fd5b80633aeac4e11461008057806351cff8d9146100a257806379ba5097146100c257600080fd5b3661007b57005b600080fd5b34801561008c57600080fd5b506100a061009b366004610a91565b610171565b005b3480156100ae57600080fd5b506100a06100bd366004610aca565b610261565b3480156100ce57600080fd5b506100a06102ff565b3480156100e357600080fd5b506000546040516001600160a01b0390911681526020015b60405180910390f35b34801561011057600080fd5b506100a061011f366004610bae565b6103a9565b34801561013057600080fd5b506100a061013f366004610aca565b6108cb565b34801561015057600080fd5b5061016461015f366004610ca7565b6108df565b6040516100fb9190610cc2565b61017961097e565b6040516370a0823160e01b81523060048201526000906001600160a01b038316906370a0823190602401602060405180830381865afa1580156101c0573d6000803e3d6000fd5b505050506040513d601f19601f820116820180604052508101906101e49190610d0f565b60405163a9059cbb60e01b81526001600160a01b038581166004830152602482018390529192509083169063a9059cbb906044016020604051808303816000875af1158015610237573d6000803e3d6000fd5b505050506040513d601f19601f8201168201806040525081019061025b9190610d28565b50505050565b61026961097e565b60405147906000906001600160a01b0384169083908381818185875af1925050503d80600081146102b6576040519150601f19603f3d011682016040523d82523d6000602084013e6102bb565b606091505b50509050806102fa57604051639d11f56360e01b81523360048201526001600160a01b0384166024820152604481018390526064015b60405180910390fd5b505050565b6001546001600160a01b031633146103525760405162461bcd60e51b815260206004820152601660248201527526bab9ba10313290383937b837b9b2b21037bbb732b960511b60448201526064016102f1565b60008054336001600160a01b0319808316821784556001805490911690556040516001600160a01b0390921692909183917f8be0079c531659141344cd1fd0a4f28419497f9722a3daafe3b4186f6b6457e091a350565b815161ffff7f0000000000000000000000000000000000000000000000000000000000000000168111156104455760405162461bcd60e51b815260206004820152603760248201527f4d6178696d756d203520646966666572656e7420746f6b656e732063616e206260448201527f652073656e74207065722043434950204d65737361676500000000000000000060648201526084016102f1565b60005b818110156105ff5783818151811061046257610462610d4a565b6020026020010151600001516001600160a01b03166323b872dd333087858151811061049057610490610d4a565b60209081029190910181015101516040516001600160e01b031960e086901b1681526001600160a01b03938416600482015292909116602483015260448201526064016020604051808303816000875af11580156104f2573d6000803e3d6000fd5b505050506040513d601f19601f820116820180604052508101906105169190610d28565b5083818151811061052957610529610d4a565b6020026020010151600001516001600160a01b031663095ea7b37f000000000000000000000000000000000000000000000000000000000000000086848151811061057657610576610d4a565b6020026020010151602001516040518363ffffffff1660e01b81526004016105b39291906001600160a01b03929092168252602082015260400190565b6020604051808303816000875af11580156105d2573d6000803e3d6000fd5b505050506040513d601f19601f820116820180604052508101906105f69190610d28565b50600101610448565b506040805160a081019091526001600160a01b03851660c08201526000908060e0810160408051601f19818403018152918152908252805160208181018352600082528301528101869052606001600185600181111561066157610661610d60565b1461066d57600061068f565b7f00000000000000000000000000000000000000000000000000000000000000005b6001600160a01b0316815260200160405180602001604052806000815250815250905060007f00000000000000000000000000000000000000000000000000000000000000006001600160a01b03166320487ded88846040518363ffffffff1660e01b8152600401610702929190610dbc565b602060405180830381865afa15801561071f573d6000803e3d6000fd5b505050506040513d601f19601f820116820180604052508101906107439190610d0f565b90506000600185600181111561075b5761075b610d60565b036107f8576040516396f4e9f960e01b81526001600160a01b037f000000000000000000000000000000000000000000000000000000000000000016906396f4e9f9906107ae908b908790600401610dbc565b6020604051808303816000875af11580156107cd573d6000803e3d6000fd5b505050506040513d601f19601f820116820180604052508101906107f19190610d0f565b905061088e565b6040516396f4e9f960e01b81526001600160a01b037f000000000000000000000000000000000000000000000000000000000000000016906396f4e9f9908490610848908c908890600401610dbc565b60206040518083038185885af1158015610866573d6000803e3d6000fd5b50505050506040513d601f19601f8201168201806040525081019061088b9190610d0f565b90505b6040518181527f54791b38f3859327992a1ca0590ad3c0f08feba98d1a4f56ab0dca74d203392a9060200160405180910390a15050505050505050565b6108d361097e565b6108dc816109d3565b50565b604051633ef28edd60e21b815267ffffffffffffffff821660048201526060907f00000000000000000000000000000000000000000000000000000000000000006001600160a01b03169063fbca3b7490602401600060405180830381865afa158015610950573d6000803e3d6000fd5b505050506040513d6000823e601f3d908101601f191682016040526109789190810190610e96565b92915050565b6000546001600160a01b031633146109d15760405162461bcd60e51b815260206004820152601660248201527527b7363c9031b0b63630b1363290313c9037bbb732b960511b60448201526064016102f1565b565b336001600160a01b03821603610a2b5760405162461bcd60e51b815260206004820152601760248201527f43616e6e6f74207472616e7366657220746f2073656c6600000000000000000060448201526064016102f1565b600180546001600160a01b0319166001600160a01b0383811691821790925560008054604051929316917fed8889f560326eb138920d842192f0eb3dd22b4f139c87a2c57538e05bae12789190a350565b6001600160a01b03811681146108dc57600080fd5b60008060408385031215610aa457600080fd5b8235610aaf81610a7c565b91506020830135610abf81610a7c565b809150509250929050565b600060208284031215610adc57600080fd5b8135610ae781610a7c565b9392505050565b803567ffffffffffffffff81168114610b0657600080fd5b919050565b634e487b7160e01b600052604160045260246000fd5b6040805190810167ffffffffffffffff81118282101715610b4457610b44610b0b565b60405290565b604051601f8201601f1916810167ffffffffffffffff81118282101715610b7357610b73610b0b565b604052919050565b600067ffffffffffffffff821115610b9557610b95610b0b565b5060051b60200190565b803560028110610b0657600080fd5b60008060008060808587031215610bc457600080fd5b610bcd85610aee565b9350602080860135610bde81610a7c565b935060408681013567ffffffffffffffff811115610bfb57600080fd5b8701601f81018913610c0c57600080fd5b8035610c1f610c1a82610b7b565b610b4a565b81815260069190911b8201840190848101908b831115610c3e57600080fd5b928501925b82841015610c875784848d031215610c5b5760008081fd5b610c63610b21565b8435610c6e81610a7c565b8152848701358782015282529284019290850190610c43565b809750505050505050610c9c60608601610b9f565b905092959194509250565b600060208284031215610cb957600080fd5b610ae782610aee565b6020808252825182820181905260009190848201906040850190845b81811015610d035783516001600160a01b031683529284019291840191600101610cde565b50909695505050505050565b600060208284031215610d2157600080fd5b5051919050565b600060208284031215610d3a57600080fd5b81518015158114610ae757600080fd5b634e487b7160e01b600052603260045260246000fd5b634e487b7160e01b600052602160045260246000fd5b6000815180845260005b81811015610d9c57602081850181015186830182015201610d80565b506000602082860101526020601f19601f83011685010191505092915050565b6000604067ffffffffffffffff8516835260208181850152845160a083860152610de960e0860182610d76565b905081860151603f1980878403016060880152610e068383610d76565b88860151888203830160808a01528051808352908601945060009350908501905b80841015610e5957845180516001600160a01b0316835286015186830152938501936001939093019290860190610e27565b5060608901516001600160a01b031660a08901526080890151888203830160c08a01529550610e888187610d76565b9a9950505050505050505050565b60006020808385031215610ea957600080fd5b825167ffffffffffffffff811115610ec057600080fd5b8301601f81018513610ed157600080fd5b8051610edf610c1a82610b7b565b81815260059190911b82018301908381019087831115610efe57600080fd5b928401925b82841015610f25578351610f1681610a7c565b82529284019290840190610f03565b97965050505050505056fea2646970667358221220d611efcde2151ee5f6b61bd4968a969b0263bc069bc12c2430fe2a9790dfac4264736f6c63430008130033",
    "linkReferences": {}
  },
  "methodIdentifiers": {
    "acceptOwnership()": "79ba5097",
    "getSupportedTokens(uint64)": "fbca3b74",
    "owner()": "8da5cb5b",
    "send(uint64,address,(address,uint256)[],uint8)": "b6d2440c",
    "transferOwnership(address)": "f2fde38b",
    "withdraw(address)": "51cff8d9",
    "withdrawToken(address,address)": "3aeac4e1"
  },
  "id": 49
}