{
  "abi": [
    {
      "inputs": [
        {
          "internalType": "address",
          "name": "router",
          "type": "address"
        }
      ],
      "stateMutability": "nonpayable",
      "type": "constructor"
    },
    {
      "inputs": [
        {
          "internalType": "address",
          "name": "owner",
          "type": "address"
        },
        {
          "internalType": "address",
          "name": "target",
          "type": "address"
        },
        {
          "internalType": "uint256",
          "name": "value",
          "type": "uint256"
        }
      ],
      "name": "FailedToWithdrawEth",
      "type": "error"
    },
    {
      "inputs": [
        {
          "internalType": "address",
          "name": "router",
          "type": "address"
        }
      ],
      "name": "InvalidRouter",
      "type": "error"
    },
    {
      "anonymous": false,
      "inputs": [
        {
          "indexed": false,
          "internalType": "bytes32",
          "name": "latestMessageId",
          "type": "bytes32"
        },
        {
          "indexed": false,
          "internalType": "uint64",
          "name": "latestSourceChainSelector",
          "type": "uint64"
        },
        {
          "indexed": false,
          "internalType": "address",
          "name": "latestSender",
          "type": "address"
        },
        {
          "indexed": false,
          "internalType": "string",
          "name": "latestMessage",
          "type": "string"
        }
      ],
      "name": "MessageReceived",
      "type": "event"
    },
    {
      "anonymous": false,
      "inputs": [
        {
          "indexed": true,
          "internalType": "address",
          "name": "from",
          "type": "address"
        },
        {
          "indexed": true,
          "internalType": "address",
          "name": "to",
          "type": "address"
        }
      ],
      "name": "OwnershipTransferRequested",
      "type": "event"
    },
    {
      "anonymous": false,
      "inputs": [
        {
          "indexed": true,
          "internalType": "address",
          "name": "from",
          "type": "address"
        },
        {
          "indexed": true,
          "internalType": "address",
          "name": "to",
          "type": "address"
        }
      ],
      "name": "OwnershipTransferred",
      "type": "event"
    },
    {
      "inputs": [],
      "name": "acceptOwnership",
      "outputs": [],
      "stateMutability": "nonpayable",
      "type": "function"
    },
    {
      "inputs": [
        {
          "components": [
            {
              "internalType": "bytes32",
              "name": "messageId",
              "type": "bytes32"
            },
            {
              "internalType": "uint64",
              "name": "sourceChainSelector",
              "type": "uint64"
            },
            {
              "internalType": "bytes",
              "name": "sender",
              "type": "bytes"
            },
            {
              "internalType": "bytes",
              "name": "data",
              "type": "bytes"
            },
            {
              "components": [
                {
                  "internalType": "address",
                  "name": "token",
                  "type": "address"
                },
                {
                  "internalType": "uint256",
                  "name": "amount",
                  "type": "uint256"
                }
              ],
              "internalType": "struct Client.EVMTokenAmount[]",
              "name": "destTokenAmounts",
              "type": "tuple[]"
            }
          ],
          "internalType": "struct Client.Any2EVMMessage",
          "name": "message",
          "type": "tuple"
        }
      ],
      "name": "ccipReceive",
      "outputs": [],
      "stateMutability": "nonpayable",
      "type": "function"
    },
    {
      "inputs": [],
      "name": "getLatestMessageDetails",
      "outputs": [
        {
          "internalType": "bytes32",
          "name": "",
          "type": "bytes32"
        },
        {
          "internalType": "uint64",
          "name": "",
          "type": "uint64"
        },
        {
          "internalType": "address",
          "name": "",
          "type": "address"
        },
        {
          "internalType": "string",
          "name": "",
          "type": "string"
        }
      ],
      "stateMutability": "view",
      "type": "function"
    },
    {
      "inputs": [],
      "name": "getRouter",
      "outputs": [
        {
          "internalType": "address",
          "name": "",
          "type": "address"
        }
      ],
      "stateMutability": "view",
      "type": "function"
    },
    {
      "inputs": [],
      "name": "owner",
      "outputs": [
        {
          "internalType": "address",
          "name": "",
          "type": "address"
        }
      ],
      "stateMutability": "view",
      "type": "function"
    },
    {
      "inputs": [
        {
          "internalType": "bytes4",
          "name": "interfaceId",
          "type": "bytes4"
        }
      ],
      "name": "supportsInterface",
      "outputs": [
        {
          "internalType": "bool",
          "name": "",
          "type": "bool"
        }
      ],
      "stateMutability": "pure",
      "type": "function"
    },
    {
      "inputs": [
        {
          "internalType": "address",
          "name": "to",
          "type": "address"
        }
      ],
      "name": "transferOwnership",
      "outputs": [],
      "stateMutability": "nonpayable",
      "type": "function"
    },
    {
      "inputs": [
        {
          "internalType": "address",
          "name": "beneficiary",
          "type": "address"
        }
      ],
      "name": "withdraw",
      "outputs": [],
      "stateMutability": "nonpayable",
      "type": "function"
    },
    {
      "inputs": [
        {
          "internalType": "address",
          "name": "beneficiary",
          "type": "address"
        },
        {
          "internalType": "address",
          "name": "token",
          "type": "address"
        }
      ],
      "name": "withdrawToken",
      "outputs": [],
      "stateMutability": "nonpayable",
      "type": "function"
    }
  ],
  "bytecode": {
    "object": "0x60a060405234801561001057600080fd5b50604051610fd2380380610fd283398101604081905261002f916101a1565b33806000836001600160a01b038116610063576040516335fdcccd60e21b8152600060048201526024015b60405180910390fd5b6001600160a01b0390811660805282166100bf5760405162461bcd60e51b815260206004820152601860248201527f43616e6e6f7420736574206f776e657220746f207a65726f0000000000000000604482015260640161005a565b600080546001600160a01b0319166001600160a01b03848116919091179091558116156100ef576100ef816100f8565b505050506101d1565b336001600160a01b038216036101505760405162461bcd60e51b815260206004820152601760248201527f43616e6e6f74207472616e7366657220746f2073656c66000000000000000000604482015260640161005a565b600180546001600160a01b0319166001600160a01b0383811691821790925560008054604051929316917fed8889f560326eb138920d842192f0eb3dd22b4f139c87a2c57538e05bae12789190a350565b6000602082840312156101b357600080fd5b81516001600160a01b03811681146101ca57600080fd5b9392505050565b608051610ddf6101f36000396000818161014201526104bd0152610ddf6000f3fe608060405234801561001057600080fd5b50600436106100935760003560e01c806379ba50971161006657806379ba50971461010057806385572ffb146101085780638da5cb5b1461011b578063b0f479a114610140578063f2fde38b1461016657600080fd5b806301ffc9a7146100985780633394e6f4146100c05780633aeac4e1146100d857806351cff8d9146100ed575b600080fd5b6100ab6100a636600461070e565b610179565b60405190151581526020015b60405180910390f35b6100c86101b0565b6040516100b79493929190610763565b6100eb6100e63660046107d1565b61027a565b005b6100eb6100fb36600461080a565b61036a565b6100eb610408565b6100eb610116366004610827565b6104b2565b6000546001600160a01b03165b6040516001600160a01b0390911681526020016100b7565b7f0000000000000000000000000000000000000000000000000000000000000000610128565b6100eb61017436600461080a565b610511565b60006001600160e01b031982166385572ffb60e01b14806101aa57506001600160e01b031982166301ffc9a760e01b145b92915050565b60025460035460048054600093849384936060936001600160401b03831692600160401b90046001600160a01b0316919081906101ec90610861565b80601f016020809104026020016040519081016040528092919081815260200182805461021890610861565b80156102655780601f1061023a57610100808354040283529160200191610265565b820191906000526020600020905b81548152906001019060200180831161024857829003601f168201915b50505050509050935093509350935090919293565b610282610522565b6040516370a0823160e01b81523060048201526000906001600160a01b038316906370a0823190602401602060405180830381865afa1580156102c9573d6000803e3d6000fd5b505050506040513d601f19601f820116820180604052508101906102ed919061089b565b60405163a9059cbb60e01b81526001600160a01b038581166004830152602482018390529192509083169063a9059cbb906044016020604051808303816000875af1158015610340573d6000803e3d6000fd5b505050506040513d601f19601f8201168201806040525081019061036491906108b4565b50505050565b610372610522565b60405147906000906001600160a01b0384169083908381818185875af1925050503d80600081146103bf576040519150601f19603f3d011682016040523d82523d6000602084013e6103c4565b606091505b505090508061040357604051639d11f56360e01b81523360048201526001600160a01b0384166024820152604481018390526064015b60405180910390fd5b505050565b6001546001600160a01b0316331461045b5760405162461bcd60e51b815260206004820152601660248201527526bab9ba10313290383937b837b9b2b21037bbb732b960511b60448201526064016103fa565b60008054336001600160a01b0319808316821784556001805490911690556040516001600160a01b0390921692909183917f8be0079c531659141344cd1fd0a4f28419497f9722a3daafe3b4186f6b6457e091a350565b336001600160a01b037f000000000000000000000000000000000000000000000000000000000000000016146104fd576040516335fdcccd60e21b81523360048201526024016103fa565b61050e61050982610aab565b610577565b50565b610519610522565b61050e81610665565b6000546001600160a01b031633146105755760405162461bcd60e51b815260206004820152601660248201527527b7363c9031b0b63630b1363290313c9037bbb732b960511b60448201526064016103fa565b565b80516002556020808201516003805467ffffffffffffffff19166001600160401b03909216919091179055604082015180516105b99290820181019101610b57565b600360086101000a8154816001600160a01b0302191690836001600160a01b0316021790555080606001518060200190518101906105f79190610b74565b6004906106049082610c38565b506002546003546040517fb1e312a29937cc11967b0e4a346fef1ae132424ebaba9dc6d90249dba053e87c9261065a9290916001600160401b03821691600160401b90046001600160a01b031690600490610cf7565b60405180910390a150565b336001600160a01b038216036106bd5760405162461bcd60e51b815260206004820152601760248201527f43616e6e6f74207472616e7366657220746f2073656c6600000000000000000060448201526064016103fa565b600180546001600160a01b0319166001600160a01b0383811691821790925560008054604051929316917fed8889f560326eb138920d842192f0eb3dd22b4f139c87a2c57538e05bae12789190a350565b60006020828403121561072057600080fd5b81356001600160e01b03198116811461073857600080fd5b9392505050565b60005b8381101561075a578181015183820152602001610742565b50506000910152565b8481526001600160401b038416602082015260018060a01b038316604082015260806060820152600082518060808401526107a58160a085016020870161073f565b601f01601f19169190910160a00195945050505050565b6001600160a01b038116811461050e57600080fd5b600080604083850312156107e457600080fd5b82356107ef816107bc565b915060208301356107ff816107bc565b809150509250929050565b60006020828403121561081c57600080fd5b8135610738816107bc565b60006020828403121561083957600080fd5b81356001600160401b0381111561084f57600080fd5b820160a0818503121561073857600080fd5b600181811c9082168061087557607f821691505b60208210810361089557634e487b7160e01b600052602260045260246000fd5b50919050565b6000602082840312156108ad57600080fd5b5051919050565b6000602082840312156108c657600080fd5b8151801515811461073857600080fd5b634e487b7160e01b600052604160045260246000fd5b604080519081016001600160401b038111828210171561090e5761090e6108d6565b60405290565b60405160a081016001600160401b038111828210171561090e5761090e6108d6565b604051601f8201601f191681016001600160401b038111828210171561095e5761095e6108d6565b604052919050565b80356001600160401b038116811461097d57600080fd5b919050565b60006001600160401b0382111561099b5761099b6108d6565b50601f01601f191660200190565b600082601f8301126109ba57600080fd5b81356109cd6109c882610982565b610936565b8181528460208386010111156109e257600080fd5b816020850160208301376000918101602001919091529392505050565b600082601f830112610a1057600080fd5b813560206001600160401b03821115610a2b57610a2b6108d6565b610a39818360051b01610936565b82815260069290921b84018101918181019086841115610a5857600080fd5b8286015b84811015610aa05760408189031215610a755760008081fd5b610a7d6108ec565b8135610a88816107bc565b81528185013585820152835291830191604001610a5c565b509695505050505050565b600060a08236031215610abd57600080fd5b610ac5610914565b82358152610ad560208401610966565b602082015260408301356001600160401b0380821115610af457600080fd5b610b00368387016109a9565b60408401526060850135915080821115610b1957600080fd5b610b25368387016109a9565b60608401526080850135915080821115610b3e57600080fd5b50610b4b368286016109ff565b60808301525092915050565b600060208284031215610b6957600080fd5b8151610738816107bc565b600060208284031215610b8657600080fd5b81516001600160401b03811115610b9c57600080fd5b8201601f81018413610bad57600080fd5b8051610bbb6109c882610982565b818152856020838501011115610bd057600080fd5b610be182602083016020860161073f565b95945050505050565b601f82111561040357600081815260208120601f850160051c81016020861015610c115750805b601f850160051c820191505b81811015610c3057828155600101610c1d565b505050505050565b81516001600160401b03811115610c5157610c516108d6565b610c6581610c5f8454610861565b84610bea565b602080601f831160018114610c9a5760008415610c825750858301515b600019600386901b1c1916600185901b178555610c30565b600085815260208120601f198616915b82811015610cc957888601518255948401946001909101908401610caa565b5085821015610ce75787850151600019600388901b60f8161c191681555b5050505050600190811b01905550565b848152600060206001600160401b0386168184015260018060a01b03851660408401526080606084015260008454610d2e81610861565b80608087015260a0600180841660008114610d505760018114610d6a57610d98565b60ff1985168984015283151560051b890183019550610d98565b896000528660002060005b85811015610d905781548b8201860152908301908801610d75565b8a0184019650505b50939b9a505050505050505050505056fea2646970667358221220d180932ddb677f4b71cede2ddb47ea9600c29fa17b5a3eb14266ba95e83dc53164736f6c63430008130033",
    "linkReferences": {}
  },
  "methodIdentifiers": {
    "acceptOwnership()": "79ba5097",
    "ccipReceive((bytes32,uint64,bytes,bytes,(address,uint256)[]))": "85572ffb",
    "getLatestMessageDetails()": "3394e6f4",
    "getRouter()": "b0f479a1",
    "owner()": "8da5cb5b",
    "supportsInterface(bytes4)": "01ffc9a7",
    "transferOwnership(address)": "f2fde38b",
    "withdraw(address)": "51cff8d9",
    "withdrawToken(address,address)": "3aeac4e1"
  },
  "id": 47
}