{
  "abi": [
    {
      "inputs": [],
      "stateMutability": "nonpayable",
      "type": "constructor"
    },
    {
      "inputs": [
        {
          "internalType": "enum Helper.SupportedNetworks",
          "name": "enumValue",
          "type": "uint8"
        }
      ],
      "name": "networks",
      "outputs": [
        {
          "internalType": "string",
          "name": "humanReadableName",
          "type": "string"
        }
      ],
      "stateMutability": "view",
      "type": "function"
    }
  ],
  "bytecode": {
    "object": "0x608060405234801561001057600080fd5b5060408051808201909152601081526f457468657265756d205365706f6c696160801b602080830191909152600080805290527fad3228b676f7d3cd4284a5443f17f1962b36e491b30a40b2405849e597ba5fb59061006f9082610292565b5060408051808201909152600f81526e4f7074696d69736d20476f65726c6960881b6020808301919091526001600090815290527fada5013122d395ba3c54772283fb069b10426056ef8ca54750cb9bb552a59e7d906100cf9082610292565b5060408051808201909152600e81526d4176616c616e6368652046756a6960901b6020808301919091526002600090815290527fabbb5caa7dda850e60932de0934eb1f9d0f59695050f761dc64e443e5030a5699061012e9082610292565b5060408051808201909152600f81526e417262697472756d20476f65726c6960881b6020808301919091526003600090815290527f101e368776582e57ab3d116ffe2517c0a585cd5b23174b01e275c2d8329c3d839061018e9082610292565b5060408051808201909152600e81526d506f6c79676f6e204d756d62616960901b6020808301919091526004600090815290527f52d75039926638d3c558b2bdefb945d5be8dae29dedd1c313212a4d472d9fde5906101ed9082610292565b50610351565b634e487b7160e01b600052604160045260246000fd5b600181811c9082168061021d57607f821691505b60208210810361023d57634e487b7160e01b600052602260045260246000fd5b50919050565b601f82111561028d57600081815260208120601f850160051c8101602086101561026a5750805b601f850160051c820191505b8181101561028957828155600101610276565b5050505b505050565b81516001600160401b038111156102ab576102ab6101f3565b6102bf816102b98454610209565b84610243565b602080601f8311600181146102f457600084156102dc5750858301515b600019600386901b1c1916600185901b178555610289565b600085815260208120601f198616915b8281101561032357888601518255948401946001909101908401610304565b50858210156103415787850151600019600388901b60f8161c191681555b5050505050600190811b01905550565b6101d9806103606000396000f3fe608060405234801561001057600080fd5b506004361061002b5760003560e01c80638a21e63914610030575b600080fd5b61004361003e3660046100f3565b610059565b604051610050919061011b565b60405180910390f35b6000602081905290815260409020805461007290610169565b80601f016020809104026020016040519081016040528092919081815260200182805461009e90610169565b80156100eb5780601f106100c0576101008083540402835291602001916100eb565b820191906000526020600020905b8154815290600101906020018083116100ce57829003601f168201915b505050505081565b60006020828403121561010557600080fd5b81356005811061011457600080fd5b9392505050565b600060208083528351808285015260005b818110156101485785810183015185820160400152820161012c565b506000604082860101526040601f19601f8301168501019250505092915050565b600181811c9082168061017d57607f821691505b60208210810361019d57634e487b7160e01b600052602260045260246000fd5b5091905056fea26469706673582212203680028973e21943f8c5b3dfa11529403635790cb7bd07dc433f18a18eb0cf2b64736f6c63430008130033",
    "linkReferences": {}
  },
  "methodIdentifiers": {
    "networks(uint8)": "8a21e639"
  },
  "id": 46
}