{
  "abi": [
    {
      "inputs": [
        {
          "internalType": "address",
          "name": "router",
          "type": "address"
        }
      ],
      "stateMutability": "nonpayable",
      "type": "constructor"
    },
    {
      "inputs": [
        {
          "internalType": "address",
          "name": "owner",
          "type": "address"
        },
        {
          "internalType": "address",
          "name": "target",
          "type": "address"
        },
        {
          "internalType": "uint256",
          "name": "value",
          "type": "uint256"
        }
      ],
      "name": "FailedToWithdrawEth",
      "type": "error"
    },
    {
      "inputs": [
        {
          "internalType": "uint256",
          "name": "providedIndex",
          "type": "uint256"
        },
        {
          "internalType": "uint256",
          "name": "maxIndex",
          "type": "uint256"
        }
      ],
      "name": "IndexOutOfBound",
      "type": "error"
    },
    {
      "inputs": [
        {
          "internalType": "address",
          "name": "router",
          "type": "address"
        }
      ],
      "name": "InvalidRouter",
      "type": "error"
    },
    {
      "inputs": [
        {
          "internalType": "bytes32",
          "name": "messageId",
          "type": "bytes32"
        }
      ],
      "name": "MessageIdNotExist",
      "type": "error"
    },
    {
      "inputs": [],
      "name": "NoMessageReceived",
      "type": "error"
    },
    {
      "inputs": [],
      "name": "NothingToWithdraw",
      "type": "error"
    },
    {
      "anonymous": false,
      "inputs": [
        {
          "indexed": true,
          "internalType": "bytes32",
          "name": "messageId",
          "type": "bytes32"
        },
        {
          "indexed": true,
          "internalType": "uint64",
          "name": "sourceChainSelector",
          "type": "uint64"
        },
        {
          "indexed": false,
          "internalType": "address",
          "name": "sender",
          "type": "address"
        },
        {
          "indexed": false,
          "internalType": "string",
          "name": "message",
          "type": "string"
        },
        {
          "components": [
            {
              "internalType": "address",
              "name": "token",
              "type": "address"
            },
            {
              "internalType": "uint256",
              "name": "amount",
              "type": "uint256"
            }
          ],
          "indexed": false,
          "internalType": "struct Client.EVMTokenAmount",
          "name": "tokenAmount",
          "type": "tuple"
        }
      ],
      "name": "MessageReceived",
      "type": "event"
    },
    {
      "anonymous": false,
      "inputs": [
        {
          "indexed": true,
          "internalType": "bytes32",
          "name": "messageId",
          "type": "bytes32"
        },
        {
          "indexed": true,
          "internalType": "uint64",
          "name": "destinationChainSelector",
          "type": "uint64"
        },
        {
          "indexed": false,
          "internalType": "address",
          "name": "receiver",
          "type": "address"
        },
        {
          "indexed": false,
          "internalType": "string",
          "name": "message",
          "type": "string"
        },
        {
          "components": [
            {
              "internalType": "address",
              "name": "token",
              "type": "address"
            },
            {
              "internalType": "uint256",
              "name": "amount",
              "type": "uint256"
            }
          ],
          "indexed": false,
          "internalType": "struct Client.EVMTokenAmount",
          "name": "tokenAmount",
          "type": "tuple"
        },
        {
          "indexed": false,
          "internalType": "uint256",
          "name": "fees",
          "type": "uint256"
        }
      ],
      "name": "MessageSent",
      "type": "event"
    },
    {
      "anonymous": false,
      "inputs": [
        {
          "indexed": true,
          "internalType": "address",
          "name": "from",
          "type": "address"
        },
        {
          "indexed": true,
          "internalType": "address",
          "name": "to",
          "type": "address"
        }
      ],
      "name": "OwnershipTransferRequested",
      "type": "event"
    },
    {
      "anonymous": false,
      "inputs": [
        {
          "indexed": true,
          "internalType": "address",
          "name": "from",
          "type": "address"
        },
        {
          "indexed": true,
          "internalType": "address",
          "name": "to",
          "type": "address"
        }
      ],
      "name": "OwnershipTransferred",
      "type": "event"
    },
    {
      "inputs": [],
      "name": "acceptOwnership",
      "outputs": [],
      "stateMutability": "nonpayable",
      "type": "function"
    },
    {
      "inputs": [
        {
          "components": [
            {
              "internalType": "bytes32",
              "name": "messageId",
              "type": "bytes32"
            },
            {
              "internalType": "uint64",
              "name": "sourceChainSelector",
              "type": "uint64"
            },
            {
              "internalType": "bytes",
              "name": "sender",
              "type": "bytes"
            },
            {
              "internalType": "bytes",
              "name": "data",
              "type": "bytes"
            },
            {
              "components": [
                {
                  "internalType": "address",
                  "name": "token",
                  "type": "address"
                },
                {
                  "internalType": "uint256",
                  "name": "amount",
                  "type": "uint256"
                }
              ],
              "internalType": "struct Client.EVMTokenAmount[]",
              "name": "destTokenAmounts",
              "type": "tuple[]"
            }
          ],
          "internalType": "struct Client.Any2EVMMessage",
          "name": "message",
          "type": "tuple"
        }
      ],
      "name": "ccipReceive",
      "outputs": [],
      "stateMutability": "nonpayable",
      "type": "function"
    },
    {
      "inputs": [],
      "name": "getLastReceivedMessageDetails",
      "outputs": [
        {
          "internalType": "bytes32",
          "name": "messageId",
          "type": "bytes32"
        },
        {
          "internalType": "uint64",
          "name": "sourceChainSelector",
          "type": "uint64"
        },
        {
          "internalType": "address",
          "name": "sender",
          "type": "address"
        },
        {
          "internalType": "string",
          "name": "message",
          "type": "string"
        },
        {
          "internalType": "address",
          "name": "token",
          "type": "address"
        },
        {
          "internalType": "uint256",
          "name": "amount",
          "type": "uint256"
        }
      ],
      "stateMutability": "view",
      "type": "function"
    },
    {
      "inputs": [],
      "name": "getNumberOfReceivedMessages",
      "outputs": [
        {
          "internalType": "uint256",
          "name": "number",
          "type": "uint256"
        }
      ],
      "stateMutability": "view",
      "type": "function"
    },
    {
      "inputs": [
        {
          "internalType": "uint256",
          "name": "index",
          "type": "uint256"
        }
      ],
      "name": "getReceivedMessageAt",
      "outputs": [
        {
          "internalType": "bytes32",
          "name": "messageId",
          "type": "bytes32"
        },
        {
          "internalType": "uint64",
          "name": "sourceChainSelector",
          "type": "uint64"
        },
        {
          "internalType": "address",
          "name": "sender",
          "type": "address"
        },
        {
          "internalType": "string",
          "name": "message",
          "type": "string"
        },
        {
          "internalType": "address",
          "name": "token",
          "type": "address"
        },
        {
          "internalType": "uint256",
          "name": "amount",
          "type": "uint256"
        }
      ],
      "stateMutability": "view",
      "type": "function"
    },
    {
      "inputs": [
        {
          "internalType": "bytes32",
          "name": "messageId",
          "type": "bytes32"
        }
      ],
      "name": "getReceivedMessageDetails",
      "outputs": [
        {
          "internalType": "uint64",
          "name": "sourceChainSelector",
          "type": "uint64"
        },
        {
          "internalType": "address",
          "name": "sender",
          "type": "address"
        },
        {
          "internalType": "string",
          "name": "message",
          "type": "string"
        },
        {
          "internalType": "address",
          "name": "token",
          "type": "address"
        },
        {
          "internalType": "uint256",
          "name": "amount",
          "type": "uint256"
        }
      ],
      "stateMutability": "view",
      "type": "function"
    },
    {
      "inputs": [],
      "name": "getRouter",
      "outputs": [
        {
          "internalType": "address",
          "name": "",
          "type": "address"
        }
      ],
      "stateMutability": "view",
      "type": "function"
    },
    {
      "inputs": [
        {
          "internalType": "bytes32",
          "name": "",
          "type": "bytes32"
        }
      ],
      "name": "messageDetail",
      "outputs": [
        {
          "internalType": "uint64",
          "name": "sourceChainSelector",
          "type": "uint64"
        },
        {
          "internalType": "address",
          "name": "sender",
          "type": "address"
        },
        {
          "internalType": "string",
          "name": "message",
          "type": "string"
        },
        {
          "internalType": "address",
          "name": "token",
          "type": "address"
        },
        {
          "internalType": "uint256",
          "name": "amount",
          "type": "uint256"
        }
      ],
      "stateMutability": "view",
      "type": "function"
    },
    {
      "inputs": [],
      "name": "owner",
      "outputs": [
        {
          "internalType": "address",
          "name": "",
          "type": "address"
        }
      ],
      "stateMutability": "view",
      "type": "function"
    },
    {
      "inputs": [
        {
          "internalType": "uint256",
          "name": "",
          "type": "uint256"
        }
      ],
      "name": "receivedMessages",
      "outputs": [
        {
          "internalType": "bytes32",
          "name": "",
          "type": "bytes32"
        }
      ],
      "stateMutability": "view",
      "type": "function"
    },
    {
      "inputs": [
        {
          "internalType": "uint64",
          "name": "destinationChainSelector",
          "type": "uint64"
        },
        {
          "internalType": "address",
          "name": "receiver",
          "type": "address"
        },
        {
          "internalType": "string",
          "name": "message",
          "type": "string"
        },
        {
          "internalType": "address",
          "name": "token",
          "type": "address"
        },
        {
          "internalType": "uint256",
          "name": "amount",
          "type": "uint256"
        }
      ],
      "name": "sendMessage",
      "outputs": [
        {
          "internalType": "bytes32",
          "name": "messageId",
          "type": "bytes32"
        }
      ],
      "stateMutability": "nonpayable",
      "type": "function"
    },
    {
      "inputs": [
        {
          "internalType": "bytes4",
          "name": "interfaceId",
          "type": "bytes4"
        }
      ],
      "name": "supportsInterface",
      "outputs": [
        {
          "internalType": "bool",
          "name": "",
          "type": "bool"
        }
      ],
      "stateMutability": "pure",
      "type": "function"
    },
    {
      "inputs": [
        {
          "internalType": "address",
          "name": "to",
          "type": "address"
        }
      ],
      "name": "transferOwnership",
      "outputs": [],
      "stateMutability": "nonpayable",
      "type": "function"
    },
    {
      "inputs": [
        {
          "internalType": "address",
          "name": "beneficiary",
          "type": "address"
        }
      ],
      "name": "withdraw",
      "outputs": [],
      "stateMutability": "nonpayable",
      "type": "function"
    },
    {
      "inputs": [
        {
          "internalType": "address",
          "name": "beneficiary",
          "type": "address"
        },
        {
          "internalType": "address",
          "name": "token",
          "type": "address"
        }
      ],
      "name": "withdrawToken",
      "outputs": [],
      "stateMutability": "nonpayable",
      "type": "function"
    },
    {
      "stateMutability": "payable",
      "type": "receive"
    }
  ],
  "bytecode": {
    "object": "0x60a06040523480156200001157600080fd5b5060405162001d7d38038062001d7d8339810160408190526200003491620001af565b33806000836001600160a01b03811662000069576040516335fdcccd60e21b8152600060048201526024015b60405180910390fd5b6001600160a01b039081166080528216620000c75760405162461bcd60e51b815260206004820152601860248201527f43616e6e6f7420736574206f776e657220746f207a65726f0000000000000000604482015260640162000060565b600080546001600160a01b0319166001600160a01b0384811691909117909155811615620000fa57620000fa8162000104565b50505050620001e1565b336001600160a01b038216036200015e5760405162461bcd60e51b815260206004820152601760248201527f43616e6e6f74207472616e7366657220746f2073656c66000000000000000000604482015260640162000060565b600180546001600160a01b0319166001600160a01b0383811691821790925560008054604051929316917fed8889f560326eb138920d842192f0eb3dd22b4f139c87a2c57538e05bae12789190a350565b600060208284031215620001c257600080fd5b81516001600160a01b0381168114620001da57600080fd5b9392505050565b608051611b79620002046000396000818161029c01526108af0152611b796000f3fe6080604052600436106100ec5760003560e01c806385572ffb1161008a578063b0f479a111610059578063b0f479a11461028d578063d030366c146102c0578063eebc927b146102e0578063f2fde38b1461030057600080fd5b806385572ffb146101fb5780638da5cb5b1461021b5780639c3ddb2e1461024d5780639c7ee0bc1461026d57600080fd5b80633aeac4e1116100c65780633aeac4e11461017357806351bd66981461019557806351cff8d9146101c657806379ba5097146101e657600080fd5b806301ffc9a7146100f85780630b652d6d1461012d578063263596a51461014c57600080fd5b366100f357005b600080fd5b34801561010457600080fd5b5061011861011336600461123f565b610320565b60405190151581526020015b60405180910390f35b34801561013957600080fd5b506002545b604051908152602001610124565b34801561015857600080fd5b50610161610357565b604051610124969594939291906112c0565b34801561017f57600080fd5b5061019361018e366004611320565b6104d4565b005b3480156101a157600080fd5b506101b56101b0366004611359565b6105e3565b604051610124959493929190611372565b3480156101d257600080fd5b506101936101e13660046113b6565b61073e565b3480156101f257600080fd5b506101936107fa565b34801561020757600080fd5b506101936102163660046113d3565b6108a4565b34801561022757600080fd5b506000546001600160a01b03165b6040516001600160a01b039091168152602001610124565b34801561025957600080fd5b506101b5610268366004611359565b610903565b34801561027957600080fd5b5061013e610288366004611429565b6109da565b34801561029957600080fd5b507f0000000000000000000000000000000000000000000000000000000000000000610235565b3480156102cc57600080fd5b5061013e6102db366004611359565b610d5b565b3480156102ec57600080fd5b506101616102fb366004611359565b610d7c565b34801561030c57600080fd5b5061019361031b3660046113b6565b610f07565b60006001600160e01b031982166385572ffb60e01b148061035157506001600160e01b031982166301ffc9a760e01b145b92915050565b6000806000606060008060028054905060000361038757604051636ad69dd560e01b815260040160405180910390fd5b60028054610397906001906114db565b815481106103a7576103a76114fc565b6000918252602080832090910154808352600382526040808420815160a08101835281546001600160401b03811682526001600160a01b03600160401b9091041694810194909452600181018054939b5090929184019161040790611512565b80601f016020809104026020016040519081016040528092919081815260200182805461043390611512565b80156104805780601f1061045557610100808354040283529160200191610480565b820191906000526020600020905b81548152906001019060200180831161046357829003601f168201915b505050918352505060028201546001600160a01b03166020808301919091526003909201546040918201528251918301519083015160608401516080909401519a9b929a9199509750919550909350915050565b6104dc610f18565b6040516370a0823160e01b81523060048201526000906001600160a01b038316906370a0823190602401602060405180830381865afa158015610523573d6000803e3d6000fd5b505050506040513d601f19601f82011682018060405250810190610547919061154c565b90508060000361056a57604051630686827b60e51b815260040160405180910390fd5b60405163a9059cbb60e01b81526001600160a01b0384811660048301526024820183905283169063a9059cbb906044016020604051808303816000875af11580156105b9573d6000803e3d6000fd5b505050506040513d601f19601f820116820180604052508101906105dd9190611565565b50505050565b6000818152600360209081526040808320815160a08101835281546001600160401b0381168252600160401b90046001600160a01b0316938101939093526001810180548594606094869485948594919284019161064090611512565b80601f016020809104026020016040519081016040528092919081815260200182805461066c90611512565b80156106b95780601f1061068e576101008083540402835291602001916106b9565b820191906000526020600020905b81548152906001019060200180831161069c57829003601f168201915b505050918352505060028201546001600160a01b03908116602080840191909152600390930154604090920191909152908201519192501661071657604051634d47bb3360e01b8152600481018890526024015b60405180910390fd5b8051602082015160408301516060840151608090940151929a91995097509195509350915050565b610746610f18565b47600081900361076957604051630686827b60e51b815260040160405180910390fd5b6000826001600160a01b03168260405160006040518083038185875af1925050503d80600081146107b6576040519150601f19603f3d011682016040523d82523d6000602084013e6107bb565b606091505b50509050806107f557604051639d11f56360e01b81523360048201526001600160a01b03841660248201526044810183905260640161070d565b505050565b6001546001600160a01b0316331461084d5760405162461bcd60e51b815260206004820152601660248201527526bab9ba10313290383937b837b9b2b21037bbb732b960511b604482015260640161070d565b60008054336001600160a01b0319808316821784556001805490911690556040516001600160a01b0390921692909183917f8be0079c531659141344cd1fd0a4f28419497f9722a3daafe3b4186f6b6457e091a350565b336001600160a01b037f000000000000000000000000000000000000000000000000000000000000000016146108ef576040516335fdcccd60e21b815233600482015260240161070d565b6109006108fb82611740565b610f6d565b50565b600360205260009081526040902080546001820180546001600160401b03831693600160401b9093046001600160a01b031692919061094190611512565b80601f016020809104026020016040519081016040528092919081815260200182805461096d90611512565b80156109ba5780601f1061098f576101008083540402835291602001916109ba565b820191906000526020600020905b81548152906001019060200180831161099d57829003601f168201915b50505050600283015460039093015491926001600160a01b031691905085565b604080516001808252818301909252600091829190816020015b60408051808201909152600080825260208201528152602001906001900390816109f457905050905060006040518060400160405280866001600160a01b031681526020018581525090508082600081518110610a5357610a536114fc565b60209081029190910101526040805160a081019091526001600160a01b03891660c08201526000908060e0810160405160208183030381529060405281526020018989604051602001610aa7929190611815565b604051602081830303815290604052815260200184815260200160006001600160a01b03168152602001610b39604051806040016040528062030d408152602001600015158152506040805182516024820152602092830151151560448083019190915282518083039091018152606490910190915290810180516001600160e01b03166397a657c960e01b17905290565b81525090506000306001600160a01b031663b0f479a16040518163ffffffff1660e01b8152600401602060405180830381865afa158015610b7e573d6000803e3d6000fd5b505050506040513d601f19601f82011682018060405250810190610ba29190611831565b60405163095ea7b360e01b81526001600160a01b038083166004830152602482018990529192509088169063095ea7b3906044016020604051808303816000875af1158015610bf5573d6000803e3d6000fd5b505050506040513d601f19601f82011682018060405250810190610c199190611565565b506040516320487ded60e01b81526000906001600160a01b038316906320487ded90610c4b908f90879060040161184e565b602060405180830381865afa158015610c68573d6000803e3d6000fd5b505050506040513d601f19601f82011682018060405250810190610c8c919061154c565b9050816001600160a01b03166396f4e9f9828e866040518463ffffffff1660e01b8152600401610cbd92919061184e565b60206040518083038185885af1158015610cdb573d6000803e3d6000fd5b50505050506040513d601f19601f82011682018060405250810190610d00919061154c565b95508b6001600160401b0316867f218adb5a0a723dc22ce7712e38f03997cd4cefc41a7fd618de7329da31321c908d8d8d8987604051610d4495949392919061192f565b60405180910390a350505050509695505050505050565b60028181548110610d6b57600080fd5b600091825260209091200154905081565b600080600060606000806002805490508710610dc5576002548790610da3906001906114db565b604051630d03942760e41b81526004810192909252602482015260440161070d565b60028781548110610dd857610dd86114fc565b6000918252602080832090910154808352600382526040808420815160a08101835281546001600160401b03811682526001600160a01b03600160401b9091041694810194909452600181018054939b50909291840191610e3890611512565b80601f0160208091040260200160405190810160405280929190818152602001828054610e6490611512565b8015610eb15780601f10610e8657610100808354040283529160200191610eb1565b820191906000526020600020905b815481529060010190602001808311610e9457829003601f168201915b505050918352505060028201546001600160a01b03166020808301919091526003909201546040918201528251918301519083015160608401516080909401519a9c929b50909990985091965090945092505050565b610f0f610f18565b61090081611196565b6000546001600160a01b03163314610f6b5760405162461bcd60e51b815260206004820152601660248201527527b7363c9031b0b63630b1363290313c9037bbb732b960511b604482015260640161070d565b565b8051602080830151604084015180519192600092610f919290810182019101611831565b9050600084608001519050600081600081518110610fb157610fb16114fc565b6020026020010151600001519050600082600081518110610fd457610fd46114fc565b602002602001015160200151905060008760600151806020019051810190610ffc919061197b565b9050600287908060018154018082558091505060019003906000526020600020016000909190919091505560006040518060a00160405280886001600160401b03168152602001876001600160a01b03168152602001838152602001856001600160a01b0316815260200184815250905080600360008a815260200190815260200160002060008201518160000160006101000a8154816001600160401b0302191690836001600160401b0316021790555060208201518160000160086101000a8154816001600160a01b0302191690836001600160a01b0316021790555060408201518160010190816110f09190611a3f565b5060608201518160020160006101000a8154816001600160a01b0302191690836001600160a01b0316021790555060808201518160030155905050866001600160401b0316887f852dbe7c0b886f87e176d6af0c3e5537dd2fc249db45c9a4348aa9bc5d18120688858960008151811061116c5761116c6114fc565b602002602001015160405161118393929190611afe565b60405180910390a3505050505050505050565b336001600160a01b038216036111ee5760405162461bcd60e51b815260206004820152601760248201527f43616e6e6f74207472616e7366657220746f2073656c66000000000000000000604482015260640161070d565b600180546001600160a01b0319166001600160a01b0383811691821790925560008054604051929316917fed8889f560326eb138920d842192f0eb3dd22b4f139c87a2c57538e05bae12789190a350565b60006020828403121561125157600080fd5b81356001600160e01b03198116811461126957600080fd5b9392505050565b60005b8381101561128b578181015183820152602001611273565b50506000910152565b600081518084526112ac816020860160208601611270565b601f01601f19169290920160200192915050565b8681526001600160401b0386166020820152600060018060a01b03808716604084015260c060608401526112f760c0840187611294565b941660808301525060a00152949350505050565b6001600160a01b038116811461090057600080fd5b6000806040838503121561133357600080fd5b823561133e8161130b565b9150602083013561134e8161130b565b809150509250929050565b60006020828403121561136b57600080fd5b5035919050565b6001600160401b0386168152600060018060a01b03808716602084015260a060408401526113a360a0840187611294565b9416606083015250608001529392505050565b6000602082840312156113c857600080fd5b81356112698161130b565b6000602082840312156113e557600080fd5b81356001600160401b038111156113fb57600080fd5b820160a0818503121561126957600080fd5b80356001600160401b038116811461142457600080fd5b919050565b60008060008060008060a0878903121561144257600080fd5b61144b8761140d565b9550602087013561145b8161130b565b945060408701356001600160401b038082111561147757600080fd5b818901915089601f83011261148b57600080fd5b81358181111561149a57600080fd5b8a60208285010111156114ac57600080fd5b60208301965080955050505060608701356114c68161130b565b80925050608087013590509295509295509295565b8181038181111561035157634e487b7160e01b600052601160045260246000fd5b634e487b7160e01b600052603260045260246000fd5b600181811c9082168061152657607f821691505b60208210810361154657634e487b7160e01b600052602260045260246000fd5b50919050565b60006020828403121561155e57600080fd5b5051919050565b60006020828403121561157757600080fd5b8151801515811461126957600080fd5b634e487b7160e01b600052604160045260246000fd5b604080519081016001600160401b03811182821017156115bf576115bf611587565b60405290565b60405160a081016001600160401b03811182821017156115bf576115bf611587565b604051601f8201601f191681016001600160401b038111828210171561160f5761160f611587565b604052919050565b60006001600160401b0382111561163057611630611587565b50601f01601f191660200190565b600082601f83011261164f57600080fd5b813561166261165d82611617565b6115e7565b81815284602083860101111561167757600080fd5b816020850160208301376000918101602001919091529392505050565b600082601f8301126116a557600080fd5b813560206001600160401b038211156116c0576116c0611587565b6116ce818360051b016115e7565b82815260069290921b840181019181810190868411156116ed57600080fd5b8286015b84811015611735576040818903121561170a5760008081fd5b61171261159d565b813561171d8161130b565b815281850135858201528352918301916040016116f1565b509695505050505050565b600060a0823603121561175257600080fd5b61175a6115c5565b8235815261176a6020840161140d565b602082015260408301356001600160401b038082111561178957600080fd5b6117953683870161163e565b604084015260608501359150808211156117ae57600080fd5b6117ba3683870161163e565b606084015260808501359150808211156117d357600080fd5b506117e036828601611694565b60808301525092915050565b81835281816020850137506000828201602090810191909152601f909101601f19169091010190565b6020815260006118296020830184866117ec565b949350505050565b60006020828403121561184357600080fd5b81516112698161130b565b600060406001600160401b038516835260208181850152845160a08386015261187a60e0860182611294565b905081860151603f19808784030160608801526118978383611294565b88860151888203830160808a01528051808352908601945060009350908501905b808410156118f2576118de82865180516001600160a01b03168252602090810151910152565b9385019360019390930192908601906118b8565b5060608901516001600160a01b031660a08901526080890151888203830160c08a015295506119218187611294565b9a9950505050505050505050565b6001600160a01b038616815260a06020820181905260009061195490830186886117ec565b84516001600160a01b03166040840152602090940151606083015250608001529392505050565b60006020828403121561198d57600080fd5b81516001600160401b038111156119a357600080fd5b8201601f810184136119b457600080fd5b80516119c261165d82611617565b8181528560208385010111156119d757600080fd5b6119e8826020830160208601611270565b95945050505050565b601f8211156107f557600081815260208120601f850160051c81016020861015611a185750805b601f850160051c820191505b81811015611a3757828155600101611a24565b505050505050565b81516001600160401b03811115611a5857611a58611587565b611a6c81611a668454611512565b846119f1565b602080601f831160018114611aa15760008415611a895750858301515b600019600386901b1c1916600185901b178555611a37565b600085815260208120601f198616915b82811015611ad057888601518255948401946001909101908401611ab1565b5085821015611aee5787850151600019600388901b60f8161c191681555b5050505050600190811b01905550565b6001600160a01b0384168152608060208201819052600090611b2290830185611294565b83516001600160a01b0316604084015260208401516060840152905061182956fea2646970667358221220eb1418171e76b045ce65c8a5d9c013e63fef8c5e1c4d9de36ef7d786c08418d364736f6c63430008130033",
    "linkReferences": {}
  },
  "methodIdentifiers": {
    "acceptOwnership()": "79ba5097",
    "ccipReceive((bytes32,uint64,bytes,bytes,(address,uint256)[]))": "85572ffb",
    "getLastReceivedMessageDetails()": "263596a5",
    "getNumberOfReceivedMessages()": "0b652d6d",
    "getReceivedMessageAt(uint256)": "eebc927b",
    "getReceivedMessageDetails(bytes32)": "51bd6698",
    "getRouter()": "b0f479a1",
    "messageDetail(bytes32)": "9c3ddb2e",
    "owner()": "8da5cb5b",
    "receivedMessages(uint256)": "d030366c",
    "sendMessage(uint64,address,string,address,uint256)": "9c7ee0bc",
    "supportsInterface(bytes4)": "01ffc9a7",
    "transferOwnership(address)": "f2fde38b",
    "withdraw(address)": "51cff8d9",
    "withdrawToken(address,address)": "3aeac4e1"
  },
  "id": 50
}